{"abi":[{"type":"constructor","inputs":[],"stateMutability":"nonpayable"},{"type":"function","name":"instantiate","inputs":[{"name":"_initialHash","type":"bytes32","internalType":"Machine.Hash"},{"name":"_contestedCommitmentOne","type":"bytes32","internalType":"Tree.Node"},{"name":"_contestedFinalStateOne","type":"bytes32","internalType":"Machine.Hash"},{"name":"_contestedCommitmentTwo","type":"bytes32","internalType":"Tree.Node"},{"name":"_contestedFinalStateTwo","type":"bytes32","internalType":"Machine.Hash"},{"name":"_allowance","type":"uint64","internalType":"Time.Duration"},{"name":"_startCycle","type":"uint256","internalType":"uint256"},{"name":"_level","type":"uint64","internalType":"uint64"},{"name":"_parent","type":"address","internalType":"contract NonLeafTournament"}],"outputs":[{"name":"","type":"address","internalType":"contract BottomTournament"}],"stateMutability":"nonpayable"}],"bytecode":{"object":"0x608060405234801561001057600080fd5b50615875806100206000396000f3fe608060405234801561001057600080fd5b506004361061002b5760003560e01c80635cd8701614610030575b600080fd5b61004361003e36600461011e565b61005f565b6040516001600160a01b03909116815260200160405180910390f35b6000808a8a8a8a8a8a8a8a8a604051610077906100f8565b988952602089019790975260408801959095526060870193909352608086019190915267ffffffffffffffff90811660a086015260c08501919091521660e08301526001600160a01b031661010082015261012001604051809103906000f0801580156100e8573d6000803e3d6000fd5b509b9a5050505050505050505050565b61568f806101b183390190565b67ffffffffffffffff8116811461011b57600080fd5b50565b60008060008060008060008060006101208a8c03121561013d57600080fd5b8935985060208a0135975060408a0135965060608a0135955060808a0135945060a08a013561016b81610105565b935060c08a0135925060e08a013561018281610105565b91506101008a01356001600160a01b038116811461019f57600080fd5b80915050929598509295985092959856fe6101c06040523480156200001257600080fd5b506040516200568f3803806200568f833981016040819052620000359162000135565b608089905260a08390526001600160401b03821660c052888888888888888888888484846200006f62000107602090811b6200149617901c565b6001600160401b0390811660e052831661010052620000b462000096600061012c620001cf565b846001600160401b03166200010b60201b6200149a1790919060201c565b15620000cc57620000c9600061012c620001cf565b92505b505050506001600160a01b0316610120525050506101409390935261016091909152610180526101a052506200020598505050505050505050565b4290565b6001600160401b0390811691161190565b6001600160401b03811681146200013257600080fd5b50565b60008060008060008060008060006101208a8c0312156200015557600080fd5b8951985060208a0151975060408a0151965060608a0151955060808a0151945060a08a015162000185816200011c565b60c08b015160e08c015191955093506200019f816200011c565b6101008b01519092506001600160a01b0381168114620001be57600080fd5b809150509295985092959850929598565b6001600160401b03818116838216019080821115620001fe57634e487b7160e01b600052601160045260246000fd5b5092915050565b60805160a05160c05160e05161010051610120516101405161016051610180516101a0516153d9620002b6600039600081816106c70152612125015260006106fa01526000818161067101526120fc0152600061069c015260005050600081816103d701526114e10152600081816103b601526114bf01526000818161033301528181610e8601528181610eb801526116e60152600081816109050152610b7e015260006105f301526153d96000f3fe608060405234801561001057600080fd5b50600436106100b45760003560e01c80638acc802d116100715780638acc802d146101cb5780639a9b4b2b146101ec578063a1af906b146101ff578063fcc6077d14610231578063fcc853911461029f578063ff78e0ee146102b257600080fd5b80631d5bf796146100b95780635017746a146100ce5780635145236f146100e15780636041ddd51461010b5780636a1a140d1461011e5780637795820c14610141575b600080fd5b6100cc6100c7366004614edb565b6102c5565b005b6100cc6100dc366004614f50565b610443565b6100e9610627565b6040805193151584526020840192909252908201526060015b60405180910390f35b6100cc610119366004614fc1565b610723565b61013161012c366004615055565b610aea565b6040519015158152602001610102565b61019f61014f366004615071565b6040805180820182526000808252602091820181905292835260028152818320600382529282902054825180840190935292546001600160401b038082168452600160401b909104169082015291565b6040805183516001600160401b0390811682526020948501511693810193909352820152606001610102565b6101de6101d9366004615071565b610b6a565b604051908152602001610102565b6100cc6101fa366004615055565b610ba9565b610207610e84565b604080516001600160401b0394851681529284166020840152921691810191909152606001610102565b61024461023f366004615071565b610ee3565b6040516101029190600060c0820190508251825260208301516020830152604083015160408301526060830151606083015260808301516001600160401b0380821660808501528060a08601511660a0850152505092915050565b6100cc6102ad36600461508a565b610f7a565b6100cc6102c03660046150cd565b611129565b6102cd6114b0565b1561031f5760405162461bcd60e51b815260206004820152601b60248201527f746f75726e616d656e7420636865636b2d696e20656c6170736564000000000060448201526064015b60405180910390fd5b600061032b838361150a565b905061035a817f0000000000000000000000000000000000000000000000000000000000000000888888611536565b610363866115b7565b60008181526003602090815260408083208990556002825291829020825180840190935280546001600160401b038082168552600160401b9091041691830191909152906103b090611625565b6103fb817f00000000000000000000000000000000000000000000000000000000000000007f0000000000000000000000000000000000000000000000000000000000000000611671565b610407828286866116ab565b6040518281527fe53537f202911d376d6e285835b2a2016e83e99fbe84a059d445cc2be48072629060200160405180910390a150505050505050565b61044b61180a565b156104685760405162461bcd60e51b815260040161031690615101565b600060048161048461047f368b90038b018b615131565b611823565b81526020808201929092526040908101600020815160c081018352815481526001820154938101939093526002810154918301919091526003810154606083015260048101546001600160401b038082166080850152600160401b9091041660a083015291506104f390611865565b6040805160c08101825282548152600183015460208201526002830154918101919091526003820154606082015260048201546001600160401b038082166080840152600160401b9091041660a082015261054d906118b1565b6040805160c08101825282548152600183015460208201526002830154918101919091526003820154606082015260048201546001600160401b038082166080840152600160401b9091041660a08201526105a9908787611919565b86356000908152600260209081526040808320918a013583529091206105ce82611926565b6105d782611942565b6105e081611926565b6105e981611942565b5061061c905081887f00000000000000000000000000000000000000000000000000000000000000008989898989611a02565b505050505050505050565b600080600061063461180a565b6106445750600092839250829150565b60008061064f611b2f565b91509150816106605761066061518d565b6000818152600360205260409020547f000000000000000000000000000000000000000000000000000000000000000081036106c557506001957f00000000000000000000000000000000000000000000000000000000000000009550909350915050565b7f000000000000000000000000000000000000000000000000000000000000000081146106f4576106f461518d565b506001957f00000000000000000000000000000000000000000000000000000000000000009550909350915050565b61072b61180a565b156107485760405162461bcd60e51b815260040161031690615101565b600060048161075f61047f368a90038a018a615131565b81526020808201929092526040908101600020815160c081018352815481526001820154938101939093526002810154918301919091526003810154606083015260048101546001600160401b038082166080850152600160401b9091041660a083015291506107ce90611865565b6040805160c08101825282548152600183015460208201526002830154918101919091526003820154606082015260048201546001600160401b038082166080840152600160401b9091041660a082015261082890611b42565b85356000908152600260209081526040808320828a0135845292819020815180830190925283546001600160401b038082168452600160401b909104169282019290925261087590611b95565b6040805180820190915281546001600160401b038082168352600160401b9091041660208201526108a590611b95565b6040805160c08101825284548152600185015460208201526002850154918101919091526003840154606082015260048401546001600160401b038082166080840152600160401b9091041660a0820152600090819081908190610929907f0000000000000000000000000000000000000000000000000000000000000000611beb565b9350935093509350600061097485858c8c8080601f016020809104026020016040519081016040528093929190818152602001838380828437600092019190915250611cd492505050565b90506109898d356109858e8e61150a565b1490565b156109f8578281146109dd5760405162461bcd60e51b815260206004820152601d60248201527f66696e616c207374617465206f6e6520646f65736e2774206d617463680000006044820152606401610316565b6109e687611926565b6109f38d35888e8e6116ab565b610abf565b610a0a60208e01356109858e8e61150a565b15610a7757818114610a5e5760405162461bcd60e51b815260206004820152601d60248201527f66696e616c2073746174652074776f20646f65736e2774206d617463680000006044820152606401610316565b610a6786611926565b6109f38d60200135878e8e6116ab565b60405162461bcd60e51b815260206004820152601f60248201527f77726f6e67206c6566742f7269676874206e6f64657320666f722073746570006044820152606401610316565b610adb610ad68e80360381019061047f9190615131565b611ce1565b50505050505050505050505050565b803560009081526002602081815260408084208151808301835290546001600160401b038082168352600160401b9182900481168386015284880135875294845282862083518085019094525480861684520490931691810191909152610b5082611d30565b1580610b625750610b6081611d30565b155b949350505050565b600080610b7683610ee3565b9050610ba2817f0000000000000000000000000000000000000000000000000000000000000000611d70565b9392505050565b610bb161180a565b15610bce5760405162461bcd60e51b815260040161031690615101565b610c4f60046000610be761047f36869003860186615131565b81526020808201929092526040908101600020815160c0810183528154815260018201549381019390935260028101549183019190915260038101546060830152600401546001600160401b038082166080840152600160401b9091041660a0820152611865565b8035600090815260026020908152604080832082850135845292819020815180830190925283546001600160401b038082168452600160401b9091041692820192909252610c9c90611b95565b6040805180820190915281546001600160401b038082168352600160401b909104166020820152610ccc90611b95565b6040805180820190915282546001600160401b038082168352600160401b909104166020820152610cfc90611d30565b158015610d7957506040805180820190915282546001600160401b038082168352600160401b909104166020820152610d7790610d3890611d8d565b6040805180820190915283546001600160401b038082168352600160401b909104166020820152610d6890611e0d565b6001600160401b03169061149a565b155b80610e1d57506040805180820190915281546001600160401b038082168352600160401b909104166020820152610daf90611d30565b158015610e1d57506040805180820190915281546001600160401b038082168352600160401b909104166020820152610e1b90610deb90611d8d565b6040805180820190915284546001600160401b038082168352600160401b909104166020820152610d6890611e0d565b155b15610e3c57610e37610ad661047f36869003860186615131565b505050565b60405162461bcd60e51b815260206004820152601b60248201527f63616e6e6f7420656c696d696e6174652062792074696d656f757400000000006044820152606401610316565b7f0000000000000000000000000000000000000000000000000000000000000000600080610eb183611e44565b9150610edc7f0000000000000000000000000000000000000000000000000000000000000000611e88565b9050909192565b6040805160c081018252600080825260208201819052918101829052606081018290526080810182905260a081019190915250600090815260046020818152604092839020835160c08101855281548152600182015492810192909252600281015493820193909352600383015460608201529101546001600160401b038082166080840152600160401b9091041660a082015290565b610f8261180a565b15610f9f5760405162461bcd60e51b815260040161031690615101565b6000600481610fb661047f368a90038a018a615131565b81526020808201929092526040908101600020815160c081018352815481526001820154938101939093526002810154918301919091526003810154606083015260048101546001600160401b038082166080850152600160401b9091041660a0830152915061102590611865565b6040805160c08101825282548152600183015460208201526002830154918101919091526003820154606082015260048201546001600160401b038082166080840152600160401b9091041660a082015261107f90611ec4565b6040805160c08101825282548152600183015460208201526002830154918101919091526003820154606082015260048201546001600160401b038082166080840152600160401b9091041660a08201526110db908686611919565b6110e9818787878787611f23565b8535600090815260026020526040902061110290611942565b6111216002600088602001358152602001908152602001600020611942565b505050505050565b61113161180a565b1561114e5760405162461bcd60e51b815260040161031690615101565b61116760046000610be761047f36889003880188615131565b8235600090815260026020908152604080832082870135845292819020815180830190925283546001600160401b038082168452600160401b90910416928201929092526111b490611b95565b6040805180820190915281546001600160401b038082168352600160401b9091041660208201526111e490611b95565b6040805180820190915282546001600160401b038082168352600160401b90910416602082015261121490611d30565b801561124d57506040805180820190915281546001600160401b038082168352600160401b90910416602082015261124b90611d30565b155b1561130f5761125e85358585612013565b6112c25760405162461bcd60e51b815260206004820152602f60248201527f6368696c64206e6f64657320646f206e6f74206d6174636820706172656e742060448201526e28636f6d6d69746d656e744f6e652960881b6064820152608401610316565b6040805180820190915281546001600160401b038082168352600160401b9091041660208201526112fd906112f690611d8d565b8390612027565b61130a85358386866116ab565b61147a565b6040805180820190915282546001600160401b038082168352600160401b90910416602082015261133f90611d30565b15801561137757506040805180820190915281546001600160401b038082168352600160401b90910416602082015261137790611d30565b1561143a5761138b60208601358585612013565b6113ef5760405162461bcd60e51b815260206004820152602f60248201527f6368696c64206e6f64657320646f206e6f74206d6174636820706172656e742060448201526e28636f6d6d69746d656e7454776f2960881b6064820152608401610316565b6040805180820190915282546001600160401b038082168352600160401b90910416602082015261142a9061142390611d8d565b8290612027565b61130a85602001358286866116ab565b60405162461bcd60e51b815260206004820152601560248201527418d85b9b9bdd081dda5b88189e481d1a5b595bdd5d605a1b6044820152606401610316565b61148f610ad661047f36889003880188615131565b5050505050565b4290565b6001600160401b03808216908316115b92915050565b60006115056001600160401b037f0000000000000000000000000000000000000000000000000000000000000000167f000000000000000000000000000000000000000000000000000000000000000061204b565b905090565b604080516020808201949094528082019290925280518083038201815260609092019052805191012090565b600061154185611e88565b9050600061155182868686612061565b90508681146115ae5760405162461bcd60e51b815260206004820152602360248201527f636f6d6d69746d656e74206c61737420737461746520646f65736e2774206d616044820152620e8c6d60eb1b6064820152608401610316565b50505050505050565b6115c0816120f8565b6116225760405162461bcd60e51b815260206004820152602d60248201527f746f75726e616d656e7420646f65736e2774206861766520636f6e746573746560448201526c642066696e616c20737461746560981b6064820152608401610316565b50565b61162e8161214b565b6116225760405162461bcd60e51b815260206004820152601460248201527318db1bd8dac81a5cc81a5b9a5d1a585b1a5e995960621b6044820152606401610316565b60006116996116896001600160401b0342168561215f565b6001600160401b03841690612176565b90506116a584826121a7565b50505050565b6116b984610985848461150a565b6116c5576116c561518d565b6000806116d0611b2f565b9150915081156118015760008061170a838988887f0000000000000000000000000000000000000000000000000000000000000000612223565b6000828152600460208181526040808420855181558286015160018201558186015160028083019190915560608701516003830155608087015191909401805460a08801516001600160401b03908116600160401b026001600160801b03199092169316929092179190911790558884529190529020919350915061178e816122e7565b611797886122e7565b6117a081611942565b6117a960008055565b600180549060006117b9836151b9565b919050555088847f32911001007d8c9879b608566be8acc2184592f0a43706f804f285455bb0f52e896040516117f191815260200190565b60405180910390a3505050611121565b61112186600055565b60006118146114b0565b80156115055750506001541590565b6000816040516020016118489190815181526020918201519181019190915260400190565b604051602081830303815290604052805190602001209050919050565b61186e81612370565b6116225760405162461bcd60e51b81526020600482015260146024820152731b585d18da08191bd95cc81b9bdd08195e1a5cdd60621b6044820152606401610316565b60808101516001600160401b03166001146116225760405162461bcd60e51b815260206004820152602260248201527f6d61746368206973206e6f7420726561647920746f2062652066696e616c697a604482015261195960f21b6064820152608401610316565b8251610e3790838361237e565b8054600160401b90046001600160401b03161561162257611622815b6040805180820190915281546001600160401b038082168352600160401b90910416602082015260009061197590611e0d565b90506001600160401b0381166119db5760405162461bcd60e51b815260206004820152602560248201527f63616e277420616476616e636520636c6f636b2077697468206e6f2074696d65604482015264081b19599d60da1b6064820152608401610316565b6119e4826123d5565b815467ffffffffffffffff19166001600160401b0391909116179055565b6040805160c0810182528954815260018a0154602082015260028a0154918101919091526003890154606082015260048901546001600160401b038082166080840152600160401b9091041660a08201526000908190611a629088612424565b611a7a57611a708a8861243d565b9092509050611a8a565b611a848a87612519565b90925090505b8960030154600003611ae157878514611adc5760405162461bcd60e51b81526020600482015260146024820152731859dc9959481a185cda081a5b98dbdc9c9958dd60621b6044820152606401610316565b611b18565b60048a015460038b0154611b1891600160401b90046001600160401b031690611b0c906001906151d2565b8b359190888888612608565b611b228a8661267f565b9850989650505050505050565b600080548015611b3e57600191505b9091565b60808101516001600160401b0316156116225760405162461bcd60e51b81526020600482015260156024820152741b585d18da081a5cc81b9bdd08199a5b9a5cda1959605a1b6044820152606401610316565b611b9e8161214b565b156116225760405162461bcd60e51b815260206004820152601860248201527f636c6f636b206973206e6f7420696e697469616c697a656400000000000000006044820152606401610316565b60008060008085608001516001600160401b0316600014611c0e57611c0e61518d565b85519350611c1c8686611d70565b925060028660600151611c2f91906151fb565b600003611c87576002611c418761269e565b611c4b919061520f565b6001600160401b0316600003611c745760208601519150611c6d866040015190565b9050611ccb565b60408601515b9150611c6d866020015190565b6002611c928761269e565b611c9c919061520f565b6001600160401b0316600003611cb6576040860151611c7a565b60208601519150611cc8866040015190565b90505b92959194509250565b6000610b628484846126ad565b60018054906000611cf183615235565b909155505060009081526004602081905260408220828155600181018390556002810183905560038101929092550180546001600160801b0319169055565b60208101516000906001600160401b0316611d4d57506001919050565b6114aa611d5f425b846020015161215f565b83516001600160401b03169061149a565b600080611d808460a00151611e44565b9050610b6284848361273f565b60208101516000906001600160401b0316611dea5760405162461bcd60e51b815260206004820152601c60248201527f612070617573656420636c6f636b2063616e27742074696d656f7574000000006044820152606401610316565b81516114aa90611dfe42856020015161215f565b6001600160401b031690612176565b60208101516000906001600160401b0316611e2757505190565b6114aa611e3342611d55565b83516001600160401b031690612176565b60408051606081018252601f8152601060208201526000918101829052806001600160401b03841660038110611e7c57611e7c61524c565b60200201519392505050565b604080516060810182526020808252600f90820152601091810191909152600090806001600160401b03841660038110611e7c57611e7c61524c565b608081015160016001600160401b03909116116116225760405162461bcd60e51b815260206004820152601760248201527f6d617463682063616e277420626520616476616e6365640000000000000000006044820152606401610316565b6040805160c08101825287548152600188015460208201526002880154918101919091526003870154606082015260048701546001600160401b038082166080840152600160401b9091041660a0820152611f7e9085612424565b611f9d57611f8d84838361237e565b611f98868383612773565b611fb3565b611fa883838361237e565b611fb38683836127e9565b611fc561047f36879003870187615131565b865460018801546040517f29ff393c59c37f91e930fad4d88447efc58cf5d7c048499e1f20edb3699413789261200392908252602082015260400190565b60405180910390a2505050505050565b6000610b62612022848461150a565b851490565b815460009061203f906001600160401b031683612176565b9050610e3783826121a7565b6000610ba26001600160401b038416834261289c565b60006001600160401b038516821461207b5761207b61518d565b60005b856001600160401b03168110156120ee578383828181106120a1576120a161524c565b90506020020135856040516020016120c3929190918252602082015260400190565b60405160208183030381529060405280519060200120945080806120e6906151b9565b91505061207e565b5092949350505050565b60007f00000000000000000000000000000000000000000000000000000000000000008214806114aa57507f000000000000000000000000000000000000000000000000000000000000000082146114aa565b80516000906001600160401b0316156114aa565b6000828261216d8183615262565b95945050505050565b600082826001600160401b038082169083161061219c576121978183615262565b61216d565b506000949350505050565b6001600160401b0381166122075760405162461bcd60e51b815260206004820152602160248201527f63616e27742063726561746520636c6f636b2077697468207a65726f2074696d6044820152606560f81b6064820152608401610316565b81546001600160801b0319166001600160401b03909116179055565b6040805160c081018252600080825260208201819052918101829052606081018290526080810182905260a0810182905261225f868686612013565b61226b5761226b61518d565b6000604051806040016040528089815260200188815250905060006040518060c001604052808a8152602001888152602001878152602001600081526020016122b387611e88565b6001600160401b03168152602001866001600160401b031681525090506122d982611823565b999098509650505050505050565b6040805180820190915281546001600160401b038082168352600160401b90910416602082015260009061231a90611e0d565b905060006123326001600160401b03831660786128b1565b9050612354612344600061012c615289565b6001600160401b0383169061149a565b156123665761203f600061012c615289565b610e3783826121a7565b8051600090155b1592915050565b612389838383612013565b610e375760405162461bcd60e51b815260206004820152601e60248201527f6368696c64206e6f64657320646f6e2774206d6174636820706172656e7400006044820152606401610316565b8054600160401b90046001600160401b031661241057805467ffffffffffffffff60401b1916600160401b6001600160401b03421602179055565b805467ffffffffffffffff60401b19169055565b6000610ba283602001518361098590919063ffffffff16565b600482015460009081906001600160401b031660011461245f5761245f61518d565b600280850184905560048501805467ffffffffffffffff1916908190556040805160c08101825287548152600188015460208201529081018690526003870154606082015260006080820152600160401b9091046001600160401b031660a08201526124ca9061269e565b6124d4919061520f565b6001600160401b03166000036124fd57600184015491506124f6846002015490565b9050612512565b6002840154915061250f846001015490565b90505b9250929050565b600482015460009081906001600160401b031660011461253b5761253b61518d565b600180850184905560048501805467ffffffffffffffff1916905560038501805460009061256a9084906152a9565b90915550506040805160c0810182528554815260018601546020820152600286810154928201929092526003860154606082015260048601546001600160401b038082166080840152600160401b9091041660a08201526125ca9061269e565b6125d4919061520f565b6001600160401b03166000036125f657600284015491506124f6846001015490565b6001840154915061250f846002015490565b600061261386611e88565b9050600061262485838887876128bf565b90508781146126755760405162461bcd60e51b815260206004820152601e60248201527f636f6d6d69746d656e7420737461746520646f65736e2774206d6174636800006044820152606401610316565b5050505050505050565b60048201546001600160401b03161561269a5761269a61518d565b9055565b60006114aa8260a00151611e88565b6040805180820182528481528151808301909252828252600060208381018290528201929092526001600160401b0367fffffffffffffffe198582160161272c5760405162461bcd60e51b8152602060048201526013602482015272149154d1550815539253541311535153951151606a1b6044820152606401610316565b612735826129b8565b5050519050610ba2565b606083015160009060016001600160401b0384161b9061275f82826152bc565b61276990866152a9565b9695505050505050565b600483015460016001600160401b03909116116127925761279261518d565b6001830180548455829055600283018190556004830180546001600160401b03169060006127bf836152d3565b91906101000a8154816001600160401b0302191690836001600160401b0316021790555050505050565b600483015460016001600160401b03909116116128085761280861518d565b6002830180548455600184018390558190556004830180546001600160401b0316906000612835836152d3565b91906101000a8154816001600160401b0302191690836001600160401b03160217905550508260040160009054906101000a90046001600160401b03166001600160401b03166001901b83600301600082825461289291906152a9565b9091555050505050565b6000610b6082610d686001600160401b038716865b6000828261216d8183615289565b60006001600160401b03851682146128d9576128d961518d565b60005b856001600160401b03168110156129ad576128f885821c612a3c565b1561294e57868484838181106129105761291061524c565b90506020020135604051602001612931929190918252602082015260400190565b60405160208183030381529060405280519060200120965061299b565b8383828181106129605761296061524c565b9050602002013587604051602001612982929190918252602082015260400190565b6040516020818303038152906040528051906020012096505b806129a5816151b9565b9150506128dc565b509495945050505050565b6000806129c483612a49565b905067fffffffffffffffe196001600160401b038216016129e85750600192915050565b6129f183612a59565b156129ff5750600292915050565b6000612a0a84612a77565b90506000612a188583612a84565b9050612a25858284612b0b565b612a30836001615289565b925061219c858461307d565b60006123776002836151fb565b60006114aa6103205b8390613090565b6000612a66610328612a52565b6001600160401b0316151592915050565b60006114aa610330612a52565b60006003821615612ad75760405162461bcd60e51b815260206004820152601d60248201527f6d6973616c69676e6564207265616455696e74333220616464726573730000006044820152606401610316565b600719821660006038600385901b165b90506000612af58684613142565b90506001600160401b038116603f83161c612769565b61707f8216601303612b2257610e3783838361319f565b61707f821661300303612b3a57610e37838383613205565b61707f821661606303612b5257610e3783838361326f565b61707f8216606303612b6957610e378383836132df565b61707f821661701303612b8157610e37838383613349565b612b8f8260336000806133a8565b15612b9f57610e378383836133ea565b607f8216606f03612bb557610e37838383613448565b612bc482601360016000613487565b15612bd457610e378383836134b0565b612be3826033600760006133a8565b15612bf357610e37838383613507565b61707f821661302303612c0b57610e37838383613560565b607f8216603703612c2157610e378383836135b7565b61707f8216606703612c3857610e37838383613602565b61707f8216601b03612c4f57610e37838383613665565b612c5e82601360056000613487565b15612c6e57610e378383836136c7565b612c7d82601b600560006133a8565b15612c8d57610e3783838361371e565b61707f821661106303612ca557610e3783838361377c565b61707f821661200303612cbd57610e378383836137e6565b607f8216601703612cd357610e37838383613830565b61707f821661706303612ceb57610e37838383613871565b612cf982603b6000806133a8565b15612d0957610e378383836138db565b612d1882601360056010613487565b15612d2857610e3783838361394f565b612d37826033600660006133a8565b15612d4757610e378383836139a1565b612d5682601b600560206133a8565b15612d6657610e378383836139fa565b61707f821661506303612d7e57610e37838383613a54565b612d8d826033600060206133a8565b15612d9d57610e37838383613ab2565b61707f821661400303612db557610e37838383613b0b565b612dc482601b600160006133a8565b15612dd457610e37838383613b6e565b612de3826033600560006133a8565b15612df357610e37838383613bc5565b612e02826033600460006133a8565b15612e1257610e37838383613c2a565b61707f821661202303612e2a57610e37838383613c83565b612e39826033600160006133a8565b15612e4957610e37838383613cda565b61707f821661406303612e6157610e37838383613d3f565b61707f8216602303612e7857610e37838383613d9e565b612e8782603b600060206133a8565b15612e9757610e37838383613df5565b61707f821661401303612eaf57610e37838383613e51565b612ebe826033600560206133a8565b15612ece57610e37838383613ea5565b61707f821661500303612ee657610e37838383613f05565b61707f821661102303612efe57610e37838383613f69565b612f0d82603b600560006133a8565b15612f1d57610e37838383613fc0565b61707f821661600303612f3557610e37838383614036565b612f4482603b600160006133a8565b15612f5457610e37838383614097565b61707f8216600303612f6b57610e378383836140ed565b612f7a826033600360006133a8565b15612f8a57610e3783838361414c565b612f9982603b600560206133a8565b15612fa957610e378383836141d0565b61707f821661100303612fc157610e37838383614227565b61707f821661601303612fd957610e37838383614286565b61707f821661301303612ff157610e378383836142da565b613000826033600260006133a8565b1561301057610e37838383614358565b61707f82166120130361302857610e378383836143c2565b61707f8216600f0361303f57610e3783838361441a565b60405162461bcd60e51b815260206004820152601360248201527234b63632b3b0b61034b739ba393ab1ba34b7b760691b6044820152606401610316565b61308c6103205b839083614424565b5050565b6000806130a0846020015161446c565b6040516001600160c01b03198216602082015290915060009060280160405160208183030381529060405280519060200120905060006130e8866130e387614496565b6144a2565b90508082146131395760405162461bcd60e51b815260206004820152601860248201527f526561642076616c756520646f65736e2774206d6174636800000000000000006044820152606401610316565b612769836144bb565b600060078216156131955760405162461bcd60e51b815260206004820152601d60248201527f6d6973616c69676e6564207265616455696e74363420616464726573730000006044820152606401610316565b610ba283836144cf565b60006131aa836144e4565b905060006131b7846144f3565b905060006131c485614510565b905060ff8216156131fb5760006131db8783614527565b905060006131eb828660030b0190565b90506131f8888583614548565b50505b6111218685614568565b6000613210836144e4565b9050600061321d846144f3565b9050600061322a85614510565b905060006132388783614527565b9050600061324f8861324a8488614576565b613142565b905060ff84161561326557613265888583614548565b6126758887614568565b600061327a8361458d565b9050600061328784614510565b9050600061329485614631565b905060006132a28784614527565b905060006132b08884614527565b9050806001600160401b0316826001600160401b0316101561326557612675886132da8888614576565b614647565b60006132ea8361458d565b905060006132f784614510565b9050600061330485614631565b905060006133128784614527565b905060006133208884614527565b9050806001600160401b0316826001600160401b03160361326557612675886132da8888614576565b6000613354836144e4565b90506000613361846144f3565b9050600061336e85614510565b905060ff8216156131fb5760006133858783614527565b905061339d87846133968760030b90565b8416614548565b506111218685614568565b600063fe00707f84650ffffffff000600c86901b166701fffffffe000000601986901b165b171763ffffffff1681871663ffffffff1614915050949350505050565b60006133f5836144f3565b9050600061340284614510565b9050600061340f85614631565b905060ff8316156131fb5760006134268784614527565b905060006134348884614527565b90506131f88886848401614548565b614548565b600061345383614651565b90506000613460846144f3565b905060ff81161561347957613479858260048601614548565b61148f856132da8585614576565b600063fc00707f84650ffffffff000600c86901b166703fffffffc000000601a86901b166133cd565b60006134bb836146a9565b905060006134c8846144f3565b905060006134d585614510565b905060ff8216156131fb5760006134ec8783614527565b905061339d87846001600160401b038416603f88161b614548565b6000613512836144f3565b9050600061351f84614510565b9050600061352c85614631565b905060ff8316156131fb5760006135438784614527565b905060006135518884614527565b90506131f88886838516614548565b600061356b836146bf565b9050600061357884614510565b9050600061358585614631565b905060006135938784614527565b905060006135a18884614527565b9050613265886135b18488614576565b836146ee565b60006135c2836144f3565b905060006135de8460006114aa620fffff600c84901c1661459c565b905060ff8216156135f8576135f885836134438460030b90565b61148f8584614568565b600061360d836144e4565b9050600061361a846144f3565b9050600061362785614510565b905060006136358783614527565b905060ff83161561364e5761364e878460048801614548565b6115ae8760011961365f8488614576565b16614647565b6000613670836144e4565b9050600061367d846144f3565b9050600061368a85614510565b9050600061369e61369b8884614527565b90565b905060ff8316156136bd578084016136bb8885600384900b614548565b505b6115ae8786614568565b60006136d2836146a9565b905060006136df846144f3565b905060006136ec85614510565b905060ff8216156131fb5760006137038783614527565b905061339d87846001600160401b038416603f88161c614548565b600061372983614631565b90506000613736846144f3565b9050600061374385614510565b905060006137518783614527565b9050600063ffffffff8216601f86161c5b905060ff8416156132655761326588856134438460030b90565b60006137878361458d565b9050600061379484614510565b905060006137a185614631565b905060006137af8784614527565b905060006137bd8884614527565b9050806001600160401b0316826001600160401b03161461326557612675886132da8888614576565b60006137f1836144e4565b905060006137fe846144f3565b9050600061380b85614510565b905060006138198783614527565b905060006137628861382b8488614576565b612a84565b600061384a8360006114aa620fffff600c84901c1661459c565b90506000613857846144f3565b905060ff8116156135f8576135f885826134438686614576565b600061387c8361458d565b9050600061388984614510565b9050600061389685614631565b905060006138a48784614527565b905060006138b28884614527565b9050806001600160401b0316826001600160401b03161061326557612675886132da8888614576565b60006138e6836144f3565b905060006138f384614510565b9050600061390085614631565b9050600061391161369b8885614527565b9050600061392261369b8985614527565b905060ff8516156132655760008183015b905061394489876134438460030b90565b506126758887614568565b600061395a836146a9565b90506000613967846144f3565b9050600061397485614510565b905060ff8216156131fb57600061398b8783614527565b905061339d8784600784900b603f88161d614548565b60006139ac836144f3565b905060006139b984614510565b905060006139c685614631565b905060ff8316156131fb5760006139dd8784614527565b905060006139eb8884614527565b90506131f88886838517614548565b6000613a0583614631565b90506000613a12846144f3565b90506000613a1f85614510565b90506000613a3061369b8884614527565b905060ff8316156136bd576136bd8784613443600385900b601f89161d5b60030b90565b6000613a5f8361458d565b90506000613a6c84614510565b90506000613a7985614631565b90506000613a878784614527565b90506000613a958884614527565b90508060070b8260070b1261326557612675886132da8888614576565b6000613abd836144f3565b90506000613aca84614510565b90506000613ad785614631565b905060ff8316156131fb576000613aee8784614527565b90506000613afc8884614527565b90506131f88886838503614548565b6000613b16836144e4565b90506000613b23846144f3565b90506000613b3085614510565b90506000613b3e8783614527565b90506000613b5588613b508488614576565b61474a565b905060ff8416156132655761326588858360ff16614548565b6000613b7983614631565b90506000613b86846144f3565b90506000613b9385614510565b90506000613ba18783614527565b905060ff8316156136bd576136bd878461344363ffffffff8516601f89161b613a4e565b6000613bd0836144f3565b90506000613bdd84614510565b90506000613bea85614631565b905060ff8316156131fb576000613c018784614527565b90506000613c0f8884614527565b90506131f888866001600160401b038516603f85161c614548565b6000613c35836144f3565b90506000613c4284614510565b90506000613c4f85614631565b905060ff8316156131fb576000613c668784614527565b90506000613c748884614527565b90506131f88886838518614548565b6000613c8e836146bf565b90506000613c9b84614510565b90506000613ca885614631565b90506000613cb68784614527565b90506000613cc48884614527565b905061326588613cd48488614576565b8361475f565b6000613ce5836144f3565b90506000613cf284614510565b90506000613cff85614631565b905060ff8316156131fb576000613d168784614527565b90506000613d248884614527565b90506131f888866001600160401b038516603f85161b614548565b6000613d4a8361458d565b90506000613d5784614510565b90506000613d6485614631565b90506000613d728784614527565b90506000613d808884614527565b90508060070b8260070b121561326557612675886132da8888614576565b6000613da9836146bf565b90506000613db684614510565b90506000613dc385614631565b90506000613dd18784614527565b90506000613ddf8884614527565b905061326588613def8488614576565b836147e7565b6000613e00836144f3565b90506000613e0d84614510565b90506000613e1a85614631565b90506000613e2b61369b8885614527565b90506000613e3c61369b8985614527565b905060ff851615613265576000818303613933565b6000613e5c836144e4565b90506000613e69846144f3565b90506000613e7685614510565b905060ff8216156131fb576000613e8d8783614527565b905061339d8784613e9e8760030b90565b8418614548565b6000613eb0836144f3565b90506000613ebd84614510565b90506000613eca85614631565b905060ff8316156131fb576000613ee18784614527565b90506000613eef8884614527565b90506131f88886600785900b603f85161d614548565b6000613f10836144e4565b90506000613f1d846144f3565b90506000613f2a85614510565b90506000613f388783614527565b90506000613f4f88613f4a8488614576565b614814565b905060ff8416156132655761326588858361ffff16614548565b6000613f74836146bf565b90506000613f8184614510565b90506000613f8e85614631565b90506000613f9c8784614527565b90506000613faa8884614527565b905061326588613fba8488614576565b83614867565b6000613fcb836144f3565b90506000613fd884614510565b90506000613fe585614631565b90506000613ff38784614527565b905060006140018884614527565b9050600063ffffffff8316601f83161c5b905060ff86161561402c5761402c89876134438460030b90565b61061c8988614568565b6000614041836144e4565b9050600061404e846144f3565b9050600061405b85614510565b905060006140698783614527565b9050600061407b8861382b8488614576565b905060ff8416156132655761326588858363ffffffff16614548565b60006140a2836144f3565b905060006140af84614510565b905060006140bc85614631565b905060006140ca8784614527565b905060006140d88884614527565b9050600063ffffffff8316601f83161b614012565b60006140f8836144e4565b90506000614105846144f3565b9050600061411285614510565b905060006141208783614527565b9050600061413288613b508488614576565b905060ff8416156132655761326588856134438460000b90565b6000614157836144f3565b9050600061416484614510565b9050600061417185614631565b905060ff8316156131fb5760006141888784614527565b905060006141968884614527565b90506000816001600160401b0316836001600160401b031610156141b8575060015b6141c3898783614548565b5050506111218685614568565b60006141db836144f3565b905060006141e884614510565b905060006141f585614631565b9050600061420661369b8885614527565b905060006142148884614527565b90506000600383900b601f83161d614012565b6000614232836144e4565b9050600061423f846144f3565b9050600061424c85614510565b9050600061425a8783614527565b9050600061426c88613f4a8488614576565b905060ff8416156132655761326588856134438460010b90565b6000614291836144e4565b9050600061429e846144f3565b905060006142ab85614510565b905060ff8216156131fb5760006142c28783614527565b905061339d87846142d38760030b90565b8417614548565b60006142e5836144e4565b905060006142f2846144f3565b905060006142ff85614510565b905060ff8216156131fb5760006143168783614527565b90506143228460030b90565b6001600160401b0316816001600160401b0316101561434c5761434787846001614548565b61339d565b61339d87846000614548565b6000614363836144f3565b9050600061437084614510565b9050600061437d85614631565b905060ff8316156131fb5760006143948784614527565b905060006143a28884614527565b905060008160070b8360070b12156141b8575060016141c3898783614548565b60006143cd836144e4565b905060006143da846144f3565b905060006143e785614510565b905060ff8216156131fb5760006143fe8783614527565b90508360030b8160070b121561434c5761434787846001614548565b610e378382614568565b610e378361443184614496565b61443a846148e6565b6040516001600160c01b03199091166020820152602801604051602081830303815290604052805190602001206148f4565b6000806144788361490d565b905060088360200181815161448d91906152a9565b90525092915050565b60006114aa8282614921565b6000806144af8382614987565b9050610b6284826149d2565b60006144c682614a53565b60c01c92915050565b6000610ba2836001600160401b038416613090565b6000600382900b60141d6114aa565b60006114aa660ffffffff00000601484901b165b601b1c601f1690565b60006114aa650ffffffff000600c84901b16614507565b600061034060f8600384901b1601610b62846001600160401b038316613090565b61034060f8600384901b16016116a5846001600160401b03831684614424565b60048101610e378382614aca565b6000806145838360030b90565b9093019392505050565b6000806145aa600384900b601f1d5b600c1b650ffffffff0001690565b905060006145d76145ca6401fffffffe600187901b165b601a1c603f1690565b60051b641fffffffe01690565b905060006145f4600f600887901c165b60011b6401fffffffe1690565b9050600061462461461666ffffffff000000601889901b165b601f1c60011690565b600b1b6507fffffff8001690565b9290931717179392505050565b60006114aa647fffffff80600784901b16614507565b61308c8282614aca565b6000600382900b601f1d60141b660ffffffff000001681614679601585901c6103ff166145e7565b905060006146956146166507fffffff800600b88901b1661460d565b9050600061462460ff600c88901c1661459c565b60006114aa643fffffffc0600684901b166145c1565b60006146d7660ffffffff00000601484901b16614507565b6146e7600384900b60191d6145ca565b1792915050565b600782161561473f5760405162461bcd60e51b815260206004820152601e60248201527f6d6973616c69676e656420777269746555696e743634206164647265737300006044820152606401610316565b610e37838383614ad5565b60006007198216816038600385901b16612ae7565b60038216156147b05760405162461bcd60e51b815260206004820152601e60248201527f6d6973616c69676e656420777269746555696e743332206164647265737300006044820152606401610316565b6007198216600383901b60381660006147c98684613142565b905060006147da8560208486614ae9565b90506115ae8785836146ee565b6007198216600383901b60381660006148008684613142565b905060006147da8560ff1660088486614ae9565b60006001821615612ad75760405162461bcd60e51b815260206004820152601d60248201527f6d6973616c69676e6564207265616455696e74313620616464726573730000006044820152606401610316565b60018216156148b85760405162461bcd60e51b815260206004820152601e60248201527f6d6973616c69676e656420777269746555696e743136206164647265737300006044820152606401610316565b6007198216600383901b60381660006148d18684613142565b905060006147da8561ffff1660108486614ae9565b60006114aa8260c01b614a53565b60006149008382614987565b90506116a5848284614b97565b60006114aa82805160209182015101015190565b6000600160ff83161b83600781161561493c5761493c61518d565b671fffffffffffffff600386901c1680614957600185615262565b166001600160401b03166000146149705761497061518d565b600061497c84836152f6565b979650505050505050565b60408051808201909152600080825260208201526149ae6001600160401b03841683614c2d565b50604080518082019091526001600160401b0392909216825260ff16602082015290565b6000806149e28460200151614c74565b60208501519091506000906149f8908584614c9e565b85519091508114614a4b5760405162461bcd60e51b815260206004820152601e60248201527f5265616420726567696f6e20726f6f7420646f65736e2774206d6174636800006044820152606401610316565b509392505050565b603881811b6001600160f81b031916602883811b60ff60f01b1691909117601884811b60ff60e81b1691909117600885811b60ff60e01b169190911760ff60d81b9186901c919091161760ff60d01b9185901c919091161760ff60c81b9184901c919091161760ff60c01b9290911c919091161790565b61308c610330613084565b610e37836001600160401b03841683614424565b60006040614af7858461531c565b63ffffffff161115614b565760405162461bcd60e51b815260206004820152602260248201527f636f70794269747320636f756e742065786365656473206c696d6974206f66206044820152610d8d60f21b6064820152608401610316565b6000614b696001603f871681901b615262565b90506001600160401b038116603f84161b19905083811663ffffffff8716603f85161b179695505050505050565b6000614ba68460200151614c74565b6020850151909150600090614bbc908584614cdb565b5085519091508114614c105760405162461bcd60e51b815260206004820152601f60248201527f577269746520726567696f6e20726f6f7420646f65736e2774206d61746368006044820152606401610316565b6020850151600090614c23908686614c9e565b9095525050505050565b6000600160ff83161b9050614c4b6001672000000000000000615262565b6001600160401b0316614c5e8285615339565b6001600160401b031610610e3757610e3761518d565b600080614c8983805160209182015101015190565b905060208360200181815161448d91906152a9565b60008080614cad868686614cdb565b602088018051929450909250611fe0600584901b1691614cce9083906152a9565b9052509095945050505050565b6000806000614cee856020015160ff1690565b9050603d60ff82161115614d525760405162461bcd60e51b815260206004820152602560248201527f43616e6e6f7420626520626967676572207468616e20746865207472656520696044820152643a39b2b63360d91b6064820152608401610316565b84516000614d6183603d615364565b905060005b8160ff16816001600160401b03161015614e6b57600060405180604001604052808b6000015181526020016005846001600160401b0316901b6001600160401b03168c60200151614db791906152a9565b90529050614dd26001600160401b038581169084161c614e7a565b15614e195787614dea82805160209182015101015190565b604080516020810193909352820152606001604051602081830303815290604052805190602001209750614e58565b614e2b81805160209182015101015190565b60408051602081019290925281018990526060016040516020818303038152906040528051906020012097505b5080614e638161537d565b915050614d66565b50949794965093945050505050565b6000614e8760028361520f565b6001600160401b03161592915050565b60008083601f840112614ea957600080fd5b5081356001600160401b03811115614ec057600080fd5b6020830191508360208260051b850101111561251257600080fd5b600080600080600060808688031215614ef357600080fd5b8535945060208601356001600160401b03811115614f1057600080fd5b614f1c88828901614e97565b9699909850959660408101359660609091013595509350505050565b600060408284031215614f4a57600080fd5b50919050565b60008060008060008060c08789031215614f6957600080fd5b614f738888614f38565b955060408701359450606087013593506080870135925060a08701356001600160401b03811115614fa357600080fd5b614faf89828a01614e97565b979a9699509497509295939492505050565b600080600080600060a08688031215614fd957600080fd5b614fe38787614f38565b9450604086013593506060860135925060808601356001600160401b038082111561500d57600080fd5b818801915088601f83011261502157600080fd5b81358181111561503057600080fd5b89602082850101111561504257600080fd5b9699959850939650602001949392505050565b60006040828403121561506757600080fd5b610ba28383614f38565b60006020828403121561508357600080fd5b5035919050565b600080600080600060c086880312156150a257600080fd5b6150ac8787614f38565b97604087013597506060870135966080810135965060a00135945092505050565b6000806000608084860312156150e257600080fd5b6150ec8585614f38565b95604085013595506060909401359392505050565b6020808252601690820152751d1bdd5c9b985b595b9d081a5cc8199a5b9a5cda195960521b604082015260600190565b60006040828403121561514357600080fd5b604051604081018181106001600160401b038211171561517357634e487b7160e01b600052604160045260246000fd5b604052823581526020928301359281019290925250919050565b634e487b7160e01b600052600160045260246000fd5b634e487b7160e01b600052601160045260246000fd5b6000600182016151cb576151cb6151a3565b5060010190565b818103818111156114aa576114aa6151a3565b634e487b7160e01b600052601260045260246000fd5b60008261520a5761520a6151e5565b500690565b60006001600160401b0380841680615229576152296151e5565b92169190910692915050565b600081615244576152446151a3565b506000190190565b634e487b7160e01b600052603260045260246000fd5b6001600160401b03828116828216039080821115615282576152826151a3565b5092915050565b6001600160401b03818116838216019080821115615282576152826151a3565b808201808211156114aa576114aa6151a3565b80820281158282048414176114aa576114aa6151a3565b60006001600160401b038216806152ec576152ec6151a3565b6000190192915050565b60006001600160401b0380841680615310576153106151e5565b92169190910492915050565b63ffffffff818116838216019080821115615282576152826151a3565b6001600160401b0381811683821602808216919082811461535c5761535c6151a3565b505092915050565b60ff82811682821603908111156114aa576114aa6151a3565b60006001600160401b03808316818103615399576153996151a3565b600101939250505056fea2646970667358221220082045c977fba3b1df818ad90d990fecfb0cdc58374058e16f02a33b5dcd99bb64736f6c63430008110033a2646970667358221220fe17eaa92fc4c086f2d5444116aeb27cb20d6bebf05176d84afa5016f7f4db2a64736f6c63430008110033","linkReferences":{}},"methodIdentifiers":{"instantiate(bytes32,bytes32,bytes32,bytes32,bytes32,uint64,uint256,uint64,address)":"5cd87016"},"id":46}