{"abi":[{"type":"constructor","inputs":[],"stateMutability":"nonpayable"},{"type":"function","name":"instantiate","inputs":[{"name":"_initialHash","type":"bytes32","internalType":"Machine.Hash"},{"name":"_contestedCommitmentOne","type":"bytes32","internalType":"Tree.Node"},{"name":"_contestedFinalStateOne","type":"bytes32","internalType":"Machine.Hash"},{"name":"_contestedCommitmentTwo","type":"bytes32","internalType":"Tree.Node"},{"name":"_contestedFinalStateTwo","type":"bytes32","internalType":"Machine.Hash"},{"name":"_allowance","type":"uint64","internalType":"Time.Duration"},{"name":"_startCycle","type":"uint256","internalType":"uint256"},{"name":"_level","type":"uint64","internalType":"uint64"},{"name":"_parent","type":"address","internalType":"contract NonLeafTournament"}],"outputs":[{"name":"","type":"address","internalType":"contract MiddleTournament"}],"stateMutability":"nonpayable"}],"bytecode":{"object":"0x608060405234801561001057600080fd5b5061360b806100206000396000f3fe608060405234801561001057600080fd5b506004361061002b5760003560e01c80635cd8701614610030575b600080fd5b61004361003e366004610128565b61005f565b6040516001600160a01b03909116815260200160405180910390f35b6000808a8a8a8a8a8a8a8a8a3360405161007890610102565b998a5260208a019890985260408901969096526060880194909452608087019290925267ffffffffffffffff90811660a087015260c08601919091521660e08401526001600160a01b039081166101008401521661012082015261014001604051809103906000f0801580156100f2573d6000803e3d6000fd5b509b9a5050505050505050505050565b61341b806101bb83390190565b67ffffffffffffffff8116811461012557600080fd5b50565b60008060008060008060008060006101208a8c03121561014757600080fd5b8935985060208a0135975060408a0135965060608a0135955060808a0135945060a08a01356101758161010f565b935060c08a0135925060e08a013561018c8161010f565b91506101008a01356001600160a01b03811681146101a957600080fd5b80915050929598509295985092959856fe6101e06040523480156200001257600080fd5b506040516200341b3803806200341b833981016040819052620000359162000154565b60808a905260a08490526001600160401b03831660c05289898989898989898989898585856200007062000110602090811b6200159917901c565b6001600160401b0390811660e052831661010052620000b562000097600061012c620001fa565b846001600160401b03166200011460201b6200159d1790919060201c565b15620000cd57620000ca600061012c620001fa565b92505b5050506001600160a01b039182166101205250166101405250505061016093909352610180919091526101a0526101c05250620002309950505050505050505050565b4290565b6001600160401b0390811691161190565b6001600160401b03811681146200013b57600080fd5b50565b6001600160a01b03811681146200013b57600080fd5b6000806000806000806000806000806101408b8d0312156200017557600080fd5b8a51995060208b0151985060408b0151975060608b0151965060808b0151955060a08b0151620001a58162000125565b60c08c015160e08d01519196509450620001bf8162000125565b6101008c0151909350620001d3816200013e565b6101208c0151909250620001e7816200013e565b809150509295989b9194979a5092959850565b6001600160401b038181168382160190808211156200022957634e487b7160e01b600052601160045260246000fd5b5092915050565b60805160a05160c05160e05161010051610120516101405161016051610180516101a0516101c051613121620002fa6000396000818161084f015261238f015260006108820152600081816107f901526123660152600061082401526000505060008181611bad0152611c510152600081816103f101526115e40152600081816103d001526115c201526000818161034d015281816106fc01528181610c4c01528181610c7e01526117e2015260008181610638015261093f015260006105f301526131216000f3fe608060405234801561001057600080fd5b50600436106100b45760003560e01c80639a9b4b2b116100715780639a9b4b2b146101d9578063a1af906b146101ec578063b401865c1461021e578063fcc6077d14610231578063fcc853911461029f578063ff78e0ee146102b257600080fd5b80631d5bf796146100b95780633f36e2fe146100ce5780635145236f146100e15780636a1a140d1461010b5780637795820c1461012e5780638acc802d146101b8575b600080fd5b6100cc6100c7366004612be1565b6102c5565b005b6100cc6100dc366004612c56565b61045d565b6100e96107af565b6040805193151584526020840192909252908201526060015b60405180910390f35b61011e610119366004612cc7565b6108ab565b6040519015158152602001610102565b61018c61013c366004612ce3565b6040805180820182526000808252602091820181905292835260028152818320600382529282902054825180840190935292546001600160401b038082168452600160401b909104169082015291565b6040805183516001600160401b0390811682526020948501511693810193909352820152606001610102565b6101cb6101c6366004612ce3565b61092b565b604051908152602001610102565b6100cc6101e7366004612cc7565b61096a565b6101f4610c4a565b604080516001600160401b0394851681529284166020840152921691810191909152606001610102565b6100cc61022c366004612d11565b610ca9565b61024461023f366004612ce3565b610fe6565b6040516101029190600060c0820190508251825260208301516020830152604083015160408301526060830151606083015260808301516001600160401b0380821660808501528060a08601511660a0850152505092915050565b6100cc6102ad366004612d46565b61107d565b6100cc6102c0366004612d89565b61122c565b6102cd6115b3565b1561031f5760405162461bcd60e51b815260206004820152601b60248201527f746f75726e616d656e7420636865636b2d696e20656c6170736564000000000060448201526064015b60405180910390fd5b60408051602080820185905281830184905282518083038401815260609092019092528051910120610374817f000000000000000000000000000000000000000000000000000000000000000088888861160d565b61037d8661168e565b60008181526003602090815260408083208990556002825291829020825180840190935280546001600160401b038082168552600160401b9091041691830191909152906103ca906116fc565b610415817f00000000000000000000000000000000000000000000000000000000000000007f0000000000000000000000000000000000000000000000000000000000000000611748565b61042182828686611782565b6040518281527fe53537f202911d376d6e285835b2a2016e83e99fbe84a059d445cc2be48072629060200160405180910390a150505050505050565b610465611906565b156104825760405162461bcd60e51b815260040161031690612dbd565b600060048161049e610499368b90038b018b612ded565b61191f565b81526020808201929092526040908101600020815160c081018352815481526001820154938101939093526002810154918301919091526003810154606083015260048101546001600160401b038082166080850152600160401b9091041660a0830152915061050d90611961565b6040805160c08101825282548152600183015460208201526002830154918101919091526003820154606082015260048201546001600160401b038082166080840152600160401b9091041660a08201526105699087876119c9565b86356000908152600260209081526040808320918a01358352822061058d826119d6565b610596816119d6565b60408051808201825283546001600160401b038082168352600160401b9182900481166020808501919091528451808601909552855480831686529290920416908301526105e3916119f6565b92506000915081905061061c848b7f00000000000000000000000000000000000000000000000000000000000000008c8c8c8c8c611a25565b915091506000610727888c60000135858e6020013586896106f77f00000000000000000000000000000000000000000000000000000000000000008d6040518060c0016040529081600082015481526020016001820154815260200160028201548152602001600382015481526020016004820160009054906101000a90046001600160401b03166001600160401b03166001600160401b031681526020016004820160089054906101000a90046001600160401b03166001600160401b03166001600160401b031681525050611b5290919063ffffffff16565b6107227f00000000000000000000000000000000000000000000000000000000000000006001612e5f565b611b6f565b905061073b610499368d90038d018d612ded565b6001600160a01b038216600090815260056020526040902055610766610499368d90038d018d612ded565b6040516001600160a01b03831681527f166b786700a644dcec96aa84a92c26ecfee11b50956409c8cc83616042290d799060200160405180910390a25050505050505050505050565b60008060006107bc611906565b6107cc5750600092839250829150565b6000806107d7611ce7565b91509150816107e8576107e8612e86565b6000818152600360205260409020547f0000000000000000000000000000000000000000000000000000000000000000810361084d57506001957f00000000000000000000000000000000000000000000000000000000000000009550909350915050565b7f0000000000000000000000000000000000000000000000000000000000000000811461087c5761087c612e86565b506001957f00000000000000000000000000000000000000000000000000000000000000009550909350915050565b803560009081526002602081815260408084208151808301835290546001600160401b038082168352600160401b918290048116838601528488013587529484528286208351808501909452548086168452049093169181019190915261091182611cfa565b1580610923575061092181611cfa565b155b949350505050565b60008061093783610fe6565b9050610963817f0000000000000000000000000000000000000000000000000000000000000000611b52565b9392505050565b610972611906565b1561098f5760405162461bcd60e51b815260040161031690612dbd565b610a10600460006109a861049936869003860186612ded565b81526020808201929092526040908101600020815160c0810183528154815260018201549381019390935260028101549183019190915260038101546060830152600401546001600160401b038082166080840152600160401b9091041660a0820152611d3a565b8035600090815260026020908152604080832082850135845292819020815180830190925283546001600160401b038082168452600160401b9091041692820192909252610a5d90611d86565b6040805180820190915281546001600160401b038082168352600160401b909104166020820152610a8d90611d86565b6040805180820190915282546001600160401b038082168352600160401b909104166020820152610abd90611cfa565b158015610b3a57506040805180820190915282546001600160401b038082168352600160401b909104166020820152610b3890610af990611ddc565b6040805180820190915283546001600160401b038082168352600160401b909104166020820152610b2990611e5c565b6001600160401b03169061159d565b155b80610bde57506040805180820190915281546001600160401b038082168352600160401b909104166020820152610b7090611cfa565b158015610bde57506040805180820190915281546001600160401b038082168352600160401b909104166020820152610bdc90610bac90611ddc565b6040805180820190915284546001600160401b038082168352600160401b909104166020820152610b2990611e5c565b155b15610c0257610bfd610bf861049936869003860186612ded565b611e93565b505050565b60405162461bcd60e51b815260206004820152601b60248201527f63616e6e6f7420656c696d696e6174652062792074696d656f757400000000006044820152606401610316565b7f0000000000000000000000000000000000000000000000000000000000000000600080610c7783611ee2565b9150610ca27f0000000000000000000000000000000000000000000000000000000000000000611f26565b9050909192565b610cb1611906565b15610cce5760405162461bcd60e51b815260040161031690612dbd565b6001600160a01b038316600090815260056020526040902054610cf081611f62565b600081815260046020818152604092839020835160c0810185528154815260018201549281019290925260028101549382019390935260038301546060820152908201546001600160401b038082166080840152600160401b9091041660a0820152610d5b90611d3a565b6040805160c08101825282548152600183015460208201526002830154918101919091526003820154606082015260048201546001600160401b038082166080840152600160401b9091041660a0820152610db590611fa5565b6000806000876001600160a01b0316635145236f6040518163ffffffff1660e01b8152600401606060405180830381865afa158015610df8573d6000803e3d6000fd5b505050506040513d601f19601f82011682018060405250810190610e1c9190612e9c565b92509250925082610e6f5760405162461bcd60e51b815260206004820181905260248201527f6368696c6420746f75726e616d656e74206973206e6f742066696e69736865646044820152606401610316565b610e7882611ff8565b6040805160208082018a905281830189905282518083038401815260609092019092528051910120828114610eef5760405162461bcd60e51b815260206004820152601e60248201527f746f75726e616d656e742077696e6e657220697320646966666572656e7400006044820152606401610316565b604051631de5608360e21b8152600481018390526000906001600160a01b038b1690637795820c90602401606060405180830381865afa158015610f37573d6000803e3d6000fd5b505050506040513d601f19601f82011682018060405250810190610f5b9190612eed565b50600083815260026020908152604091829020825180840190935280546001600160401b038082168552600160401b9091041691830191909152919250610fa190611d86565b610fab8183612045565b610fb783828c8c611782565b610fc088611e93565b5050506001600160a01b0390971660009081526005602052604081205550505050505050565b6040805160c081018252600080825260208201819052918101829052606081018290526080810182905260a081019190915250600090815260046020818152604092839020835160c08101855281548152600182015492810192909252600281015493820193909352600383015460608201529101546001600160401b038082166080840152600160401b9091041660a082015290565b611085611906565b156110a25760405162461bcd60e51b815260040161031690612dbd565b60006004816110b9610499368a90038a018a612ded565b81526020808201929092526040908101600020815160c081018352815481526001820154938101939093526002810154918301919091526003810154606083015260048101546001600160401b038082166080850152600160401b9091041660a0830152915061112890611d3a565b6040805160c08101825282548152600183015460208201526002830154918101919091526003820154606082015260048201546001600160401b038082166080840152600160401b9091041660a08201526111829061205c565b6040805160c08101825282548152600183015460208201526002830154918101919091526003820154606082015260048201546001600160401b038082166080840152600160401b9091041660a08201526111de9086866119c9565b6111ec8187878787876120bb565b85356000908152600260205260409020611205906121ab565b61122460026000886020013581526020019081526020016000206121ab565b505050505050565b611234611906565b156112515760405162461bcd60e51b815260040161031690612dbd565b61126a600460006109a861049936889003880188612ded565b8235600090815260026020908152604080832082870135845292819020815180830190925283546001600160401b038082168452600160401b90910416928201929092526112b790611d86565b6040805180820190915281546001600160401b038082168352600160401b9091041660208201526112e790611d86565b6040805180820190915282546001600160401b038082168352600160401b90910416602082015261131790611cfa565b801561135057506040805180820190915281546001600160401b038082168352600160401b90910416602082015261134e90611cfa565b155b15611412576113618535858561226b565b6113c55760405162461bcd60e51b815260206004820152602f60248201527f6368696c64206e6f64657320646f206e6f74206d6174636820706172656e742060448201526e28636f6d6d69746d656e744f6e652960881b6064820152608401610316565b6040805180820190915281546001600160401b038082168352600160401b909104166020820152611400906113f990611ddc565b839061229d565b61140d8535838686611782565b61157d565b6040805180820190915282546001600160401b038082168352600160401b90910416602082015261144290611cfa565b15801561147a57506040805180820190915281546001600160401b038082168352600160401b90910416602082015261147a90611cfa565b1561153d5761148e6020860135858561226b565b6114f25760405162461bcd60e51b815260206004820152602f60248201527f6368696c64206e6f64657320646f206e6f74206d6174636820706172656e742060448201526e28636f6d6d69746d656e7454776f2960881b6064820152608401610316565b6040805180820190915282546001600160401b038082168352600160401b90910416602082015261152d9061152690611ddc565b829061229d565b61140d8560200135828686611782565b60405162461bcd60e51b815260206004820152601560248201527418d85b9b9bdd081dda5b88189e481d1a5b595bdd5d605a1b6044820152606401610316565b611592610bf861049936889003880188612ded565b5050505050565b4290565b6001600160401b03808216908316115b92915050565b60006116086001600160401b037f0000000000000000000000000000000000000000000000000000000000000000167f00000000000000000000000000000000000000000000000000000000000000006122b5565b905090565b600061161885611f26565b90506000611628828686866122cb565b90508681146116855760405162461bcd60e51b815260206004820152602360248201527f636f6d6d69746d656e74206c61737420737461746520646f65736e2774206d616044820152620e8c6d60eb1b6064820152608401610316565b50505050505050565b61169781612362565b6116f95760405162461bcd60e51b815260206004820152602d60248201527f746f75726e616d656e7420646f65736e2774206861766520636f6e746573746560448201526c642066696e616c20737461746560981b6064820152608401610316565b50565b611705816123b5565b6116f95760405162461bcd60e51b815260206004820152601460248201527318db1bd8dac81a5cc81a5b9a5d1a585b1a5e995960621b6044820152606401610316565b60006117706117606001600160401b034216856123c9565b6001600160401b038416906123e0565b905061177c8482612411565b50505050565b6040805160208082018590528183018490528251808303840181526060909201909252805191012084146117b5565b1490565b6117c1576117c1612e86565b6000806117cc611ce7565b9150915081156118fd57600080611806838988887f000000000000000000000000000000000000000000000000000000000000000061248d565b6000828152600460208181526040808420855181558286015160018201558186015160028083019190915560608701516003830155608087015191909401805460a08801516001600160401b03908116600160401b026001600160801b03199092169316929092179190911790558884529190529020919350915061188a81612551565b61189388612551565b61189c816121ab565b6118a560008055565b600180549060006118b583612f73565b919050555088847f32911001007d8c9879b608566be8acc2184592f0a43706f804f285455bb0f52e896040516118ed91815260200190565b60405180910390a3505050611224565b61122486600055565b60006119106115b3565b80156116085750506001541590565b6000816040516020016119449190815181526020918201519181019190915260400190565b604051602081830303815290604052805190602001209050919050565b60808101516001600160401b03166001146116f95760405162461bcd60e51b815260206004820152602260248201527f6d61746368206973206e6f7420726561647920746f2062652066696e616c697a604482015261195960f21b6064820152608401610316565b8251610bfd9083836125da565b8054600160401b90046001600160401b0316156116f9576116f9816121ab565b80518251600091611a10916001600160401b03169061159d565b15611a1d575081516115ad565b5080516115ad565b6040805160c0810182528954815260018a0154602082015260028a0154918101919091526003890154606082015260048901546001600160401b038082166080840152600160401b9091041660a08201526000908190611a859088612631565b611a9d57611a938a8861264a565b9092509050611aad565b611aa78a87612726565b90925090505b8960030154600003611b0457878514611aff5760405162461bcd60e51b81526020600482015260146024820152731859dc9959481a185cda081a5b98dbdc9c9958dd60621b6044820152606401610316565b611b3b565b60048a015460038b0154611b3b91600160401b90046001600160401b031690611b2f90600190612f8c565b8b359190888888612815565b611b458a8661288c565b9850989650505050505050565b600080611b628460a00151611ee2565b90506109238484836128ab565b600080611b7e60016003612f9f565b6001600160401b0316836001600160401b031603611c3a5760405163b96efa6b60e01b81526001600160a01b037f0000000000000000000000000000000000000000000000000000000000000000169063b96efa6b90611bf0908d908d908d908d908d908d908d908d90600401612fbf565b6020604051808303816000875af1158015611c0f573d6000803e3d6000fd5b505050506040513d601f19601f82011682018060405250810190611c339190613004565b9050611cda565b60405163141012df60e21b81526001600160a01b037f000000000000000000000000000000000000000000000000000000000000000016906350404b7c90611c94908d908d908d908d908d908d908d908d90600401612fbf565b6020604051808303816000875af1158015611cb3573d6000803e3d6000fd5b505050506040513d601f19601f82011682018060405250810190611cd79190613004565b90505b9998505050505050505050565b600080548015611cf657600191505b9091565b60208101516000906001600160401b0316611d1757506001919050565b6115ad611d29425b84602001516123c9565b83516001600160401b03169061159d565b611d43816128df565b6116f95760405162461bcd60e51b81526020600482015260146024820152731b585d18da08191bd95cc81b9bdd08195e1a5cdd60621b6044820152606401610316565b611d8f816123b5565b156116f95760405162461bcd60e51b815260206004820152601860248201527f636c6f636b206973206e6f7420696e697469616c697a656400000000000000006044820152606401610316565b60208101516000906001600160401b0316611e395760405162461bcd60e51b815260206004820152601c60248201527f612070617573656420636c6f636b2063616e27742074696d656f7574000000006044820152606401610316565b81516115ad90611e4d4285602001516123c9565b6001600160401b0316906123e0565b60208101516000906001600160401b0316611e7657505190565b6115ad611e8242611d1f565b83516001600160401b0316906123e0565b60018054906000611ea383613021565b909155505060009081526004602081905260408220828155600181018390556002810183905560038101929092550180546001600160801b0319169055565b60408051606081018252601f8152601060208201526000918101829052806001600160401b03841660038110611f1a57611f1a613038565b60200201519392505050565b604080516060810182526020808252600f90820152601091810191909152600090806001600160401b03841660038110611f1a57611f1a613038565b806116f95760405162461bcd60e51b81526020600482015260136024820152721b585d18da08191bd95cdb89dd08195e1a5cdd606a1b6044820152606401610316565b60808101516001600160401b0316156116f95760405162461bcd60e51b81526020600482015260156024820152741b585d18da081a5cc81b9bdd08199a5b9a5cda1959605a1b6044820152606401610316565b806116f95760405162461bcd60e51b815260206004820152601760248201527f74726565206e6f646520646f65736e27742065786973740000000000000000006044820152606401610316565b600061205082611e5c565b9050610bfd8382612411565b608081015160016001600160401b03909116116116f95760405162461bcd60e51b815260206004820152601760248201527f6d617463682063616e277420626520616476616e6365640000000000000000006044820152606401610316565b6040805160c08101825287548152600188015460208201526002880154918101919091526003870154606082015260048701546001600160401b038082166080840152600160401b9091041660a08201526121169085612631565b612135576121258483836125da565b6121308683836128ed565b61214b565b6121408383836125da565b61214b868383612963565b61215d61049936879003870187612ded565b865460018801546040517f29ff393c59c37f91e930fad4d88447efc58cf5d7c048499e1f20edb3699413789261219b92908252602082015260400190565b60405180910390a2505050505050565b6040805180820190915281546001600160401b038082168352600160401b9091041660208201526000906121de90611e5c565b90506001600160401b0381166122445760405162461bcd60e51b815260206004820152602560248201527f63616e277420616476616e636520636c6f636b2077697468206e6f2074696d65604482015264081b19599d60da1b6064820152608401610316565b61224d82612a16565b815467ffffffffffffffff19166001600160401b0391909116179055565b604080516020808201859052818301849052825180830384018152606090920190925280519101206000908414610923565b8154600090612050906001600160401b0316836123e0565b60006109636001600160401b0384168342612a65565b60006001600160401b03851682146122e5576122e5612e86565b60005b856001600160401b03168110156123585783838281811061230b5761230b613038565b905060200201358560405160200161232d929190918252602082015260400190565b604051602081830303815290604052805190602001209450808061235090612f73565b9150506122e8565b5092949350505050565b60007f00000000000000000000000000000000000000000000000000000000000000008214806115ad57507f000000000000000000000000000000000000000000000000000000000000000082146115ad565b80516000906001600160401b0316156115ad565b600082826123d78183612f9f565b95945050505050565b600082826001600160401b0380821690831610612406576124018183612f9f565b6123d7565b506000949350505050565b6001600160401b0381166124715760405162461bcd60e51b815260206004820152602160248201527f63616e27742063726561746520636c6f636b2077697468207a65726f2074696d6044820152606560f81b6064820152608401610316565b81546001600160801b0319166001600160401b03909116179055565b6040805160c081018252600080825260208201819052918101829052606081018290526080810182905260a081018290526124c986868661226b565b6124d5576124d5612e86565b6000604051806040016040528089815260200188815250905060006040518060c001604052808a81526020018881526020018781526020016000815260200161251d87611f26565b6001600160401b03168152602001866001600160401b031681525090506125438261191f565b999098509650505050505050565b6040805180820190915281546001600160401b038082168352600160401b90910416602082015260009061258490611e5c565b9050600061259c6001600160401b0383166078612a7a565b90506125be6125ae600061012c612e5f565b6001600160401b0383169061159d565b156125d057612050600061012c612e5f565b610bfd8382612411565b6125e583838361226b565b610bfd5760405162461bcd60e51b815260206004820152601e60248201527f6368696c64206e6f64657320646f6e2774206d6174636820706172656e7400006044820152606401610316565b60006109638360200151836117b190919063ffffffff16565b600482015460009081906001600160401b031660011461266c5761266c612e86565b600280850184905560048501805467ffffffffffffffff1916908190556040805160c08101825287548152600188015460208201529081018690526003870154606082015260006080820152600160401b9091046001600160401b031660a08201526126d790612a88565b6126e19190613064565b6001600160401b031660000361270a5760018401549150612703846002015490565b905061271f565b6002840154915061271c846001015490565b90505b9250929050565b600482015460009081906001600160401b031660011461274857612748612e86565b600180850184905560048501805467ffffffffffffffff1916905560038501805460009061277790849061308a565b90915550506040805160c0810182528554815260018601546020820152600286810154928201929092526003860154606082015260048601546001600160401b038082166080840152600160401b9091041660a08201526127d790612a88565b6127e19190613064565b6001600160401b03166000036128035760028401549150612703846001015490565b6001840154915061271c846002015490565b600061282086611f26565b905060006128318583888787612a97565b90508781146128825760405162461bcd60e51b815260206004820152601e60248201527f636f6d6d69746d656e7420737461746520646f65736e2774206d6174636800006044820152606401610316565b5050505050505050565b60048201546001600160401b0316156128a7576128a7612e86565b9055565b606083015160009060016001600160401b0384161b906128cb828261309d565b6128d5908661308a565b9695505050505050565b8051600090155b1592915050565b600483015460016001600160401b039091161161290c5761290c612e86565b6001830180548455829055600283018190556004830180546001600160401b0316906000612939836130b4565b91906101000a8154816001600160401b0302191690836001600160401b0316021790555050505050565b600483015460016001600160401b039091161161298257612982612e86565b6002830180548455600184018390558190556004830180546001600160401b03169060006129af836130b4565b91906101000a8154816001600160401b0302191690836001600160401b03160217905550508260040160009054906101000a90046001600160401b03166001600160401b03166001901b836003016000828254612a0c919061308a565b9091555050505050565b8054600160401b90046001600160401b0316612a5157805467ffffffffffffffff60401b1916600160401b6001600160401b03421602179055565b805467ffffffffffffffff60401b19169055565b600061092182610b296001600160401b038716865b600082826123d78183612e5f565b60006115ad8260a00151611f26565b60006001600160401b0385168214612ab157612ab1612e86565b60005b856001600160401b0316811015612b8557612ad085821c612b90565b15612b265786848483818110612ae857612ae8613038565b90506020020135604051602001612b09929190918252602082015260400190565b604051602081830303815290604052805190602001209650612b73565b838382818110612b3857612b38613038565b9050602002013587604051602001612b5a929190918252602082015260400190565b6040516020818303038152906040528051906020012096505b80612b7d81612f73565b915050612ab4565b509495945050505050565b60006128e66002836130d7565b60008083601f840112612baf57600080fd5b5081356001600160401b03811115612bc657600080fd5b6020830191508360208260051b850101111561271f57600080fd5b600080600080600060808688031215612bf957600080fd5b8535945060208601356001600160401b03811115612c1657600080fd5b612c2288828901612b9d565b9699909850959660408101359660609091013595509350505050565b600060408284031215612c5057600080fd5b50919050565b60008060008060008060c08789031215612c6f57600080fd5b612c798888612c3e565b955060408701359450606087013593506080870135925060a08701356001600160401b03811115612ca957600080fd5b612cb589828a01612b9d565b979a9699509497509295939492505050565b600060408284031215612cd957600080fd5b6109638383612c3e565b600060208284031215612cf557600080fd5b5035919050565b6001600160a01b03811681146116f957600080fd5b600080600060608486031215612d2657600080fd5b8335612d3181612cfc565b95602085013595506040909401359392505050565b600080600080600060c08688031215612d5e57600080fd5b612d688787612c3e565b97604087013597506060870135966080810135965060a00135945092505050565b600080600060808486031215612d9e57600080fd5b612da88585612c3e565b95604085013595506060909401359392505050565b6020808252601690820152751d1bdd5c9b985b595b9d081a5cc8199a5b9a5cda195960521b604082015260600190565b600060408284031215612dff57600080fd5b604051604081018181106001600160401b0382111715612e2f57634e487b7160e01b600052604160045260246000fd5b604052823581526020928301359281019290925250919050565b634e487b7160e01b600052601160045260246000fd5b6001600160401b03818116838216019080821115612e7f57612e7f612e49565b5092915050565b634e487b7160e01b600052600160045260246000fd5b600080600060608486031215612eb157600080fd5b83518015158114612ec157600080fd5b602085015160409095015190969495509392505050565b6001600160401b03811681146116f957600080fd5b6000808284036060811215612f0157600080fd5b6040811215612f0f57600080fd5b50604051604081018181106001600160401b0382111715612f4057634e487b7160e01b600052604160045260246000fd5b6040528351612f4e81612ed8565b81526020840151612f5e81612ed8565b60208201526040939093015192949293505050565b600060018201612f8557612f85612e49565b5060010190565b818103818111156115ad576115ad612e49565b6001600160401b03828116828216039080821115612e7f57612e7f612e49565b97885260208801969096526040870194909452606086019290925260808501526001600160401b0390811660a085015260c08401919091521660e08201526101000190565b60006020828403121561301657600080fd5b815161096381612cfc565b60008161303057613030612e49565b506000190190565b634e487b7160e01b600052603260045260246000fd5b634e487b7160e01b600052601260045260246000fd5b60006001600160401b038084168061307e5761307e61304e565b92169190910692915050565b808201808211156115ad576115ad612e49565b80820281158282048414176115ad576115ad612e49565b60006001600160401b038216806130cd576130cd612e49565b6000190192915050565b6000826130e6576130e661304e565b50069056fea26469706673582212207af14d149c7f8a70f785be5093a14ccfc785d5ec640f846fade8deeba63bfc3864736f6c63430008110033a26469706673582212209955e8dc19fda4b2d1d4a582682373ebc93bb9ea1afc900694c8bcb741383cb964736f6c63430008110033","linkReferences":{}},"methodIdentifiers":{"instantiate(bytes32,bytes32,bytes32,bytes32,bytes32,uint64,uint256,uint64,address)":"5cd87016"},"id":48}