{"abi":[{"type":"constructor","inputs":[],"stateMutability":"nonpayable"},{"type":"function","name":"instantiate","inputs":[{"name":"_initialHash","type":"bytes32","internalType":"Machine.Hash"}],"outputs":[{"name":"","type":"address","internalType":"contract SingleLevelTournament"}],"stateMutability":"nonpayable"}],"bytecode":{"object":"0x608060405234801561001057600080fd5b5061550b806100206000396000f3fe608060405234801561001057600080fd5b506004361061002b5760003560e01c806369ea58d814610030575b600080fd5b61004361003e3660046100a6565b61005f565b6040516001600160a01b03909116815260200160405180910390f35b6000808260405161006f90610099565b908152602001604051809103906000f080158015610091573d6000803e3d6000fd5b509392505050565b615416806100c083390190565b6000602082840312156100b857600080fd5b503591905056fe6101206040523480156200001257600080fd5b5060405162005416380380620054168339810160408190526200003591620000ec565b808062000046600061012c62000106565b6080829052600060a081905260c0819052806200006e620000d7602090811b620013e617901c565b6001600160401b0390811660e052831661010052620000b362000095600061012c62000106565b846001600160401b0316620000db60201b620013ea1790919060201c565b15620000cb57620000c8600061012c62000106565b92505b5050505050506200013c565b4290565b6001600160401b0390811691161190565b600060208284031215620000ff57600080fd5b5051919050565b6001600160401b038181168382160190808211156200013557634e487b7160e01b600052601160045260246000fd5b5092915050565b60805160a05160c05160e0516101005161526b620001ab600039600081816103ce01526114310152600081816103ad015261140f01526000818161033301528181610d8101528181610db301526115cb0152600081816108000152610a79015260006105ea015261526b6000f3fe608060405234801561001057600080fd5b50600436106100b45760003560e01c80639a9b4b2b116100715780639a9b4b2b146101c7578063a1af906b146101da578063cb2773db1461020c578063fcc6077d14610231578063fcc853911461029f578063ff78e0ee146102b257600080fd5b80631d5bf796146100b95780635017746a146100ce5780636041ddd5146100e15780636a1a140d146100f45780637795820c1461011c5780638acc802d146101a6575b600080fd5b6100cc6100c7366004614d6d565b6102c5565b005b6100cc6100dc366004614de2565b61043a565b6100cc6100ef366004614e53565b61061e565b610107610102366004614ee7565b6109e5565b60405190151581526020015b60405180910390f35b61017a61012a366004614f03565b6040805180820182526000808252602091820181905292835260028152818320600382529282902054825180840190935292546001600160401b038082168452600160401b909104169082015291565b6040805183516001600160401b0390811682526020948501511693810193909352820152606001610113565b6101b96101b4366004614f03565b610a65565b604051908152602001610113565b6100cc6101d5366004614ee7565b610aa4565b6101e2610d7f565b604080516001600160401b0394851681529284166020840152921691810191909152606001610113565b610214610dde565b604080519315158452602084019290925290820152606001610113565b61024461023f366004614f03565b610e33565b6040516101139190600060c0820190508251825260208301516020830152604083015160408301526060830151606083015260808301516001600160401b0380821660808501528060a08601511660a0850152505092915050565b6100cc6102ad366004614f1c565b610eca565b6100cc6102c0366004614f5f565b611079565b6102cd611400565b1561031f5760405162461bcd60e51b815260206004820152601b60248201527f746f75726e616d656e7420636865636b2d696e20656c6170736564000000000060448201526064015b60405180910390fd5b600061032b838361145a565b905061035a817f0000000000000000000000000000000000000000000000000000000000000000888888611486565b60008181526003602090815260408083208990556002825291829020825180840190935280546001600160401b038082168552600160401b9091041691830191909152906103a79061150a565b6103f2817f00000000000000000000000000000000000000000000000000000000000000007f0000000000000000000000000000000000000000000000000000000000000000611556565b6103fe82828686611590565b6040518281527fe53537f202911d376d6e285835b2a2016e83e99fbe84a059d445cc2be48072629060200160405180910390a150505050505050565b6104426116ef565b1561045f5760405162461bcd60e51b815260040161031690614f93565b600060048161047b610476368b90038b018b614fc3565b611708565b81526020808201929092526040908101600020815160c081018352815481526001820154938101939093526002810154918301919091526003810154606083015260048101546001600160401b038082166080850152600160401b9091041660a083015291506104ea9061174a565b6040805160c08101825282548152600183015460208201526002830154918101919091526003820154606082015260048201546001600160401b038082166080840152600160401b9091041660a082015261054490611796565b6040805160c08101825282548152600183015460208201526002830154918101919091526003820154606082015260048201546001600160401b038082166080840152600160401b9091041660a08201526105a09087876117fe565b86356000908152600260209081526040808320918a013583529091206105c58261180b565b6105ce82611827565b6105d78161180b565b6105e081611827565b50610613905081887f000000000000000000000000000000000000000000000000000000000000000089898989896118e7565b505050505050505050565b6106266116ef565b156106435760405162461bcd60e51b815260040161031690614f93565b600060048161065a610476368a90038a018a614fc3565b81526020808201929092526040908101600020815160c081018352815481526001820154938101939093526002810154918301919091526003810154606083015260048101546001600160401b038082166080850152600160401b9091041660a083015291506106c99061174a565b6040805160c08101825282548152600183015460208201526002830154918101919091526003820154606082015260048201546001600160401b038082166080840152600160401b9091041660a082015261072390611a14565b85356000908152600260209081526040808320828a0135845292819020815180830190925283546001600160401b038082168452600160401b909104169282019290925261077090611a67565b6040805180820190915281546001600160401b038082168352600160401b9091041660208201526107a090611a67565b6040805160c08101825284548152600185015460208201526002850154918101919091526003840154606082015260048401546001600160401b038082166080840152600160401b9091041660a0820152600090819081908190610824907f0000000000000000000000000000000000000000000000000000000000000000611abd565b9350935093509350600061086f85858c8c8080601f016020809104026020016040519081016040528093929190818152602001838380828437600092019190915250611ba692505050565b90506108848d356108808e8e61145a565b1490565b156108f3578281146108d85760405162461bcd60e51b815260206004820152601d60248201527f66696e616c207374617465206f6e6520646f65736e2774206d617463680000006044820152606401610316565b6108e18761180b565b6108ee8d35888e8e611590565b6109ba565b61090560208e01356108808e8e61145a565b15610972578181146109595760405162461bcd60e51b815260206004820152601d60248201527f66696e616c2073746174652074776f20646f65736e2774206d617463680000006044820152606401610316565b6109628661180b565b6108ee8d60200135878e8e611590565b60405162461bcd60e51b815260206004820152601f60248201527f77726f6e67206c6566742f7269676874206e6f64657320666f722073746570006044820152606401610316565b6109d66109d18e8036038101906104769190614fc3565b611bb3565b50505050505050505050505050565b803560009081526002602081815260408084208151808301835290546001600160401b038082168352600160401b9182900481168386015284880135875294845282862083518085019094525480861684520490931691810191909152610a4b82611c02565b1580610a5d5750610a5b81611c02565b155b949350505050565b600080610a7183610e33565b9050610a9d817f0000000000000000000000000000000000000000000000000000000000000000611c42565b9392505050565b610aac6116ef565b15610ac95760405162461bcd60e51b815260040161031690614f93565b610b4a60046000610ae261047636869003860186614fc3565b81526020808201929092526040908101600020815160c0810183528154815260018201549381019390935260028101549183019190915260038101546060830152600401546001600160401b038082166080840152600160401b9091041660a082015261174a565b8035600090815260026020908152604080832082850135845292819020815180830190925283546001600160401b038082168452600160401b9091041692820192909252610b9790611a67565b6040805180820190915281546001600160401b038082168352600160401b909104166020820152610bc790611a67565b6040805180820190915282546001600160401b038082168352600160401b909104166020820152610bf790611c02565b158015610c7457506040805180820190915282546001600160401b038082168352600160401b909104166020820152610c7290610c3390611c5f565b6040805180820190915283546001600160401b038082168352600160401b909104166020820152610c6390611cdf565b6001600160401b0316906113ea565b155b80610d1857506040805180820190915281546001600160401b038082168352600160401b909104166020820152610caa90611c02565b158015610d1857506040805180820190915281546001600160401b038082168352600160401b909104166020820152610d1690610ce690611c5f565b6040805180820190915284546001600160401b038082168352600160401b909104166020820152610c6390611cdf565b155b15610d3757610d326109d161047636869003860186614fc3565b505050565b60405162461bcd60e51b815260206004820152601b60248201527f63616e6e6f7420656c696d696e6174652062792074696d656f757400000000006044820152606401610316565b7f0000000000000000000000000000000000000000000000000000000000000000600080610dac83611d16565b9150610dd77f0000000000000000000000000000000000000000000000000000000000000000611d5a565b9050909192565b6000806000610deb6116ef565b610dfb5750600092839250829150565b600080610e06611d96565b9150915081610e1757610e1761501f565b6000818152600360205260409020546001969195509350915050565b6040805160c081018252600080825260208201819052918101829052606081018290526080810182905260a081019190915250600090815260046020818152604092839020835160c08101855281548152600182015492810192909252600281015493820193909352600383015460608201529101546001600160401b038082166080840152600160401b9091041660a082015290565b610ed26116ef565b15610eef5760405162461bcd60e51b815260040161031690614f93565b6000600481610f06610476368a90038a018a614fc3565b81526020808201929092526040908101600020815160c081018352815481526001820154938101939093526002810154918301919091526003810154606083015260048101546001600160401b038082166080850152600160401b9091041660a08301529150610f759061174a565b6040805160c08101825282548152600183015460208201526002830154918101919091526003820154606082015260048201546001600160401b038082166080840152600160401b9091041660a0820152610fcf90611da9565b6040805160c08101825282548152600183015460208201526002830154918101919091526003820154606082015260048201546001600160401b038082166080840152600160401b9091041660a082015261102b9086866117fe565b611039818787878787611e08565b8535600090815260026020526040902061105290611827565b6110716002600088602001358152602001908152602001600020611827565b505050505050565b6110816116ef565b1561109e5760405162461bcd60e51b815260040161031690614f93565b6110b760046000610ae261047636889003880188614fc3565b8235600090815260026020908152604080832082870135845292819020815180830190925283546001600160401b038082168452600160401b909104169282019290925261110490611a67565b6040805180820190915281546001600160401b038082168352600160401b90910416602082015261113490611a67565b6040805180820190915282546001600160401b038082168352600160401b90910416602082015261116490611c02565b801561119d57506040805180820190915281546001600160401b038082168352600160401b90910416602082015261119b90611c02565b155b1561125f576111ae85358585611ef8565b6112125760405162461bcd60e51b815260206004820152602f60248201527f6368696c64206e6f64657320646f206e6f74206d6174636820706172656e742060448201526e28636f6d6d69746d656e744f6e652960881b6064820152608401610316565b6040805180820190915281546001600160401b038082168352600160401b90910416602082015261124d9061124690611c5f565b8390611f0c565b61125a8535838686611590565b6113ca565b6040805180820190915282546001600160401b038082168352600160401b90910416602082015261128f90611c02565b1580156112c757506040805180820190915281546001600160401b038082168352600160401b9091041660208201526112c790611c02565b1561138a576112db60208601358585611ef8565b61133f5760405162461bcd60e51b815260206004820152602f60248201527f6368696c64206e6f64657320646f206e6f74206d6174636820706172656e742060448201526e28636f6d6d69746d656e7454776f2960881b6064820152608401610316565b6040805180820190915282546001600160401b038082168352600160401b90910416602082015261137a9061137390611c5f565b8290611f0c565b61125a8560200135828686611590565b60405162461bcd60e51b815260206004820152601560248201527418d85b9b9bdd081dda5b88189e481d1a5b595bdd5d605a1b6044820152606401610316565b6113df6109d161047636889003880188614fc3565b5050505050565b4290565b6001600160401b03808216908316115b92915050565b60006114556001600160401b037f0000000000000000000000000000000000000000000000000000000000000000167f0000000000000000000000000000000000000000000000000000000000000000611f30565b905090565b604080516020808201949094528082019290925280518083038201815260609092019052805191012090565b600061149185611d5a565b905060006114a182868686611f46565b90508681146114fe5760405162461bcd60e51b815260206004820152602360248201527f636f6d6d69746d656e74206c61737420737461746520646f65736e2774206d616044820152620e8c6d60eb1b6064820152608401610316565b50505050505050565b50565b61151381611fdd565b6115075760405162461bcd60e51b815260206004820152601460248201527318db1bd8dac81a5cc81a5b9a5d1a585b1a5e995960621b6044820152606401610316565b600061157e61156e6001600160401b03421685611ff1565b6001600160401b03841690612008565b905061158a8482612039565b50505050565b61159e84610880848461145a565b6115aa576115aa61501f565b6000806115b5611d96565b9150915081156116e6576000806115ef838988887f00000000000000000000000000000000000000000000000000000000000000006120b5565b6000828152600460208181526040808420855181558286015160018201558186015160028083019190915560608701516003830155608087015191909401805460a08801516001600160401b03908116600160401b026001600160801b03199092169316929092179190911790558884529190529020919350915061167381612179565b61167c88612179565b61168581611827565b61168e60008055565b6001805490600061169e8361504b565b919050555088847f32911001007d8c9879b608566be8acc2184592f0a43706f804f285455bb0f52e896040516116d691815260200190565b60405180910390a3505050611071565b61107186600055565b60006116f9611400565b80156114555750506001541590565b60008160405160200161172d9190815181526020918201519181019190915260400190565b604051602081830303815290604052805190602001209050919050565b61175381612202565b6115075760405162461bcd60e51b81526020600482015260146024820152731b585d18da08191bd95cc81b9bdd08195e1a5cdd60621b6044820152606401610316565b60808101516001600160401b03166001146115075760405162461bcd60e51b815260206004820152602260248201527f6d61746368206973206e6f7420726561647920746f2062652066696e616c697a604482015261195960f21b6064820152608401610316565b8251610d32908383612210565b8054600160401b90046001600160401b03161561150757611507815b6040805180820190915281546001600160401b038082168352600160401b90910416602082015260009061185a90611cdf565b90506001600160401b0381166118c05760405162461bcd60e51b815260206004820152602560248201527f63616e277420616476616e636520636c6f636b2077697468206e6f2074696d65604482015264081b19599d60da1b6064820152608401610316565b6118c982612267565b815467ffffffffffffffff19166001600160401b0391909116179055565b6040805160c0810182528954815260018a0154602082015260028a0154918101919091526003890154606082015260048901546001600160401b038082166080840152600160401b9091041660a0820152600090819061194790886122b6565b61195f576119558a886122cf565b909250905061196f565b6119698a876123ab565b90925090505b89600301546000036119c6578785146119c15760405162461bcd60e51b81526020600482015260146024820152731859dc9959481a185cda081a5b98dbdc9c9958dd60621b6044820152606401610316565b6119fd565b60048a015460038b01546119fd91600160401b90046001600160401b0316906119f190600190615064565b8b35919088888861249a565b611a078a86612511565b9850989650505050505050565b60808101516001600160401b0316156115075760405162461bcd60e51b81526020600482015260156024820152741b585d18da081a5cc81b9bdd08199a5b9a5cda1959605a1b6044820152606401610316565b611a7081611fdd565b156115075760405162461bcd60e51b815260206004820152601860248201527f636c6f636b206973206e6f7420696e697469616c697a656400000000000000006044820152606401610316565b60008060008085608001516001600160401b0316600014611ae057611ae061501f565b85519350611aee8686611c42565b925060028660600151611b01919061508d565b600003611b59576002611b1387612530565b611b1d91906150a1565b6001600160401b0316600003611b465760208601519150611b3f866040015190565b9050611b9d565b60408601515b9150611b3f866020015190565b6002611b6487612530565b611b6e91906150a1565b6001600160401b0316600003611b88576040860151611b4c565b60208601519150611b9a866040015190565b90505b92959194509250565b6000610a5d84848461253f565b60018054906000611bc3836150c7565b909155505060009081526004602081905260408220828155600181018390556002810183905560038101929092550180546001600160801b0319169055565b60208101516000906001600160401b0316611c1f57506001919050565b6113fa611c31425b8460200151611ff1565b83516001600160401b0316906113ea565b600080611c528460a00151611d16565b9050610a5d8484836125d1565b60208101516000906001600160401b0316611cbc5760405162461bcd60e51b815260206004820152601c60248201527f612070617573656420636c6f636b2063616e27742074696d656f7574000000006044820152606401610316565b81516113fa90611cd0428560200151611ff1565b6001600160401b031690612008565b60208101516000906001600160401b0316611cf957505190565b6113fa611d0542611c27565b83516001600160401b031690612008565b60408051606081018252601f8152601060208201526000918101829052806001600160401b03841660038110611d4e57611d4e6150de565b60200201519392505050565b604080516060810182526020808252600f90820152601091810191909152600090806001600160401b03841660038110611d4e57611d4e6150de565b600080548015611da557600191505b9091565b608081015160016001600160401b03909116116115075760405162461bcd60e51b815260206004820152601760248201527f6d617463682063616e277420626520616476616e6365640000000000000000006044820152606401610316565b6040805160c08101825287548152600188015460208201526002880154918101919091526003870154606082015260048701546001600160401b038082166080840152600160401b9091041660a0820152611e6390856122b6565b611e8257611e72848383612210565b611e7d868383612605565b611e98565b611e8d838383612210565b611e9886838361267b565b611eaa61047636879003870187614fc3565b865460018801546040517f29ff393c59c37f91e930fad4d88447efc58cf5d7c048499e1f20edb36994137892611ee892908252602082015260400190565b60405180910390a2505050505050565b6000610a5d611f07848461145a565b851490565b8154600090611f24906001600160401b031683612008565b9050610d328382612039565b6000610a9d6001600160401b038416834261272e565b60006001600160401b0385168214611f6057611f6061501f565b60005b856001600160401b0316811015611fd357838382818110611f8657611f866150de565b9050602002013585604051602001611fa8929190918252602082015260400190565b6040516020818303038152906040528051906020012094508080611fcb9061504b565b915050611f63565b5092949350505050565b80516000906001600160401b0316156113fa565b60008282611fff81836150f4565b95945050505050565b600082826001600160401b038082169083161061202e5761202981836150f4565b611fff565b506000949350505050565b6001600160401b0381166120995760405162461bcd60e51b815260206004820152602160248201527f63616e27742063726561746520636c6f636b2077697468207a65726f2074696d6044820152606560f81b6064820152608401610316565b81546001600160801b0319166001600160401b03909116179055565b6040805160c081018252600080825260208201819052918101829052606081018290526080810182905260a081018290526120f1868686611ef8565b6120fd576120fd61501f565b6000604051806040016040528089815260200188815250905060006040518060c001604052808a81526020018881526020018781526020016000815260200161214587611d5a565b6001600160401b03168152602001866001600160401b0316815250905061216b82611708565b999098509650505050505050565b6040805180820190915281546001600160401b038082168352600160401b9091041660208201526000906121ac90611cdf565b905060006121c46001600160401b0383166078612743565b90506121e66121d6600061012c61511b565b6001600160401b038316906113ea565b156121f857611f24600061012c61511b565b610d328382612039565b8051600090155b1592915050565b61221b838383611ef8565b610d325760405162461bcd60e51b815260206004820152601e60248201527f6368696c64206e6f64657320646f6e2774206d6174636820706172656e7400006044820152606401610316565b8054600160401b90046001600160401b03166122a257805467ffffffffffffffff60401b1916600160401b6001600160401b03421602179055565b805467ffffffffffffffff60401b19169055565b6000610a9d83602001518361088090919063ffffffff16565b600482015460009081906001600160401b03166001146122f1576122f161501f565b600280850184905560048501805467ffffffffffffffff1916908190556040805160c08101825287548152600188015460208201529081018690526003870154606082015260006080820152600160401b9091046001600160401b031660a082015261235c90612530565b61236691906150a1565b6001600160401b031660000361238f5760018401549150612388846002015490565b90506123a4565b600284015491506123a1846001015490565b90505b9250929050565b600482015460009081906001600160401b03166001146123cd576123cd61501f565b600180850184905560048501805467ffffffffffffffff191690556003850180546000906123fc90849061513b565b90915550506040805160c0810182528554815260018601546020820152600286810154928201929092526003860154606082015260048601546001600160401b038082166080840152600160401b9091041660a082015261245c90612530565b61246691906150a1565b6001600160401b03166000036124885760028401549150612388846001015490565b600184015491506123a1846002015490565b60006124a586611d5a565b905060006124b68583888787612751565b90508781146125075760405162461bcd60e51b815260206004820152601e60248201527f636f6d6d69746d656e7420737461746520646f65736e2774206d6174636800006044820152606401610316565b5050505050505050565b60048201546001600160401b03161561252c5761252c61501f565b9055565b60006113fa8260a00151611d5a565b6040805180820182528481528151808301909252828252600060208381018290528201929092526001600160401b0367fffffffffffffffe19858216016125be5760405162461bcd60e51b8152602060048201526013602482015272149154d1550815539253541311535153951151606a1b6044820152606401610316565b6125c78261284a565b5050519050610a9d565b606083015160009060016001600160401b0384161b906125f1828261514e565b6125fb908661513b565b9695505050505050565b600483015460016001600160401b03909116116126245761262461501f565b6001830180548455829055600283018190556004830180546001600160401b031690600061265183615165565b91906101000a8154816001600160401b0302191690836001600160401b0316021790555050505050565b600483015460016001600160401b039091161161269a5761269a61501f565b6002830180548455600184018390558190556004830180546001600160401b03169060006126c783615165565b91906101000a8154816001600160401b0302191690836001600160401b03160217905550508260040160009054906101000a90046001600160401b03166001600160401b03166001901b836003016000828254612724919061513b565b9091555050505050565b6000610a5b82610c636001600160401b038716865b60008282611fff818361511b565b60006001600160401b038516821461276b5761276b61501f565b60005b856001600160401b031681101561283f5761278a85821c6128ce565b156127e057868484838181106127a2576127a26150de565b905060200201356040516020016127c3929190918252602082015260400190565b60405160208183030381529060405280519060200120965061282d565b8383828181106127f2576127f26150de565b9050602002013587604051602001612814929190918252602082015260400190565b6040516020818303038152906040528051906020012096505b806128378161504b565b91505061276e565b509495945050505050565b600080612856836128db565b905067fffffffffffffffe196001600160401b0382160161287a5750600192915050565b612883836128eb565b156128915750600292915050565b600061289c84612909565b905060006128aa8583612916565b90506128b785828461299d565b6128c283600161511b565b925061202e8584612f0f565b600061220960028361508d565b60006113fa6103205b8390612f22565b60006128f86103286128e4565b6001600160401b0316151592915050565b60006113fa6103306128e4565b600060038216156129695760405162461bcd60e51b815260206004820152601d60248201527f6d6973616c69676e6564207265616455696e74333220616464726573730000006044820152606401610316565b600719821660006038600385901b165b905060006129878684612fd4565b90506001600160401b038116603f83161c6125fb565b61707f82166013036129b457610d32838383613031565b61707f8216613003036129cc57610d32838383613097565b61707f8216616063036129e457610d32838383613101565b61707f82166063036129fb57610d32838383613171565b61707f821661701303612a1357610d328383836131db565b612a2182603360008061323a565b15612a3157610d3283838361327c565b607f8216606f03612a4757610d328383836132da565b612a5682601360016000613319565b15612a6657610d32838383613342565b612a758260336007600061323a565b15612a8557610d32838383613399565b61707f821661302303612a9d57610d328383836133f2565b607f8216603703612ab357610d32838383613449565b61707f8216606703612aca57610d32838383613494565b61707f8216601b03612ae157610d328383836134f7565b612af082601360056000613319565b15612b0057610d32838383613559565b612b0f82601b6005600061323a565b15612b1f57610d328383836135b0565b61707f821661106303612b3757610d3283838361360e565b61707f821661200303612b4f57610d32838383613678565b607f8216601703612b6557610d328383836136c2565b61707f821661706303612b7d57610d32838383613703565b612b8b82603b60008061323a565b15612b9b57610d3283838361376d565b612baa82601360056010613319565b15612bba57610d328383836137e1565b612bc98260336006600061323a565b15612bd957610d32838383613833565b612be882601b6005602061323a565b15612bf857610d3283838361388c565b61707f821661506303612c1057610d328383836138e6565b612c1f8260336000602061323a565b15612c2f57610d32838383613944565b61707f821661400303612c4757610d3283838361399d565b612c5682601b6001600061323a565b15612c6657610d32838383613a00565b612c758260336005600061323a565b15612c8557610d32838383613a57565b612c948260336004600061323a565b15612ca457610d32838383613abc565b61707f821661202303612cbc57610d32838383613b15565b612ccb8260336001600061323a565b15612cdb57610d32838383613b6c565b61707f821661406303612cf357610d32838383613bd1565b61707f8216602303612d0a57610d32838383613c30565b612d1982603b6000602061323a565b15612d2957610d32838383613c87565b61707f821661401303612d4157610d32838383613ce3565b612d508260336005602061323a565b15612d6057610d32838383613d37565b61707f821661500303612d7857610d32838383613d97565b61707f821661102303612d9057610d32838383613dfb565b612d9f82603b6005600061323a565b15612daf57610d32838383613e52565b61707f821661600303612dc757610d32838383613ec8565b612dd682603b6001600061323a565b15612de657610d32838383613f29565b61707f8216600303612dfd57610d32838383613f7f565b612e0c8260336003600061323a565b15612e1c57610d32838383613fde565b612e2b82603b6005602061323a565b15612e3b57610d32838383614062565b61707f821661100303612e5357610d328383836140b9565b61707f821661601303612e6b57610d32838383614118565b61707f821661301303612e8357610d3283838361416c565b612e928260336002600061323a565b15612ea257610d328383836141ea565b61707f821661201303612eba57610d32838383614254565b61707f8216600f03612ed157610d328383836142ac565b60405162461bcd60e51b815260206004820152601360248201527234b63632b3b0b61034b739ba393ab1ba34b7b760691b6044820152606401610316565b612f1e6103205b8390836142b6565b5050565b600080612f3284602001516142fe565b6040516001600160c01b0319821660208201529091506000906028016040516020818303038152906040528051906020012090506000612f7a86612f7587614328565b614334565b9050808214612fcb5760405162461bcd60e51b815260206004820152601860248201527f526561642076616c756520646f65736e2774206d6174636800000000000000006044820152606401610316565b6125fb8361434d565b600060078216156130275760405162461bcd60e51b815260206004820152601d60248201527f6d6973616c69676e6564207265616455696e74363420616464726573730000006044820152606401610316565b610a9d8383614361565b600061303c83614376565b9050600061304984614385565b90506000613056856143a2565b905060ff82161561308d57600061306d87836143b9565b9050600061307d828660030b0190565b905061308a8885836143da565b50505b61107186856143fa565b60006130a283614376565b905060006130af84614385565b905060006130bc856143a2565b905060006130ca87836143b9565b905060006130e1886130dc8488614408565b612fd4565b905060ff8416156130f7576130f78885836143da565b61250788876143fa565b600061310c8361441f565b90506000613119846143a2565b90506000613126856144c3565b9050600061313487846143b9565b9050600061314288846143b9565b9050806001600160401b0316826001600160401b031610156130f7576125078861316c8888614408565b6144d9565b600061317c8361441f565b90506000613189846143a2565b90506000613196856144c3565b905060006131a487846143b9565b905060006131b288846143b9565b9050806001600160401b0316826001600160401b0316036130f7576125078861316c8888614408565b60006131e683614376565b905060006131f384614385565b90506000613200856143a2565b905060ff82161561308d57600061321787836143b9565b905061322f87846132288760030b90565b84166143da565b5061107186856143fa565b600063fe00707f84650ffffffff000600c86901b166701fffffffe000000601986901b165b171763ffffffff1681871663ffffffff1614915050949350505050565b600061328783614385565b90506000613294846143a2565b905060006132a1856144c3565b905060ff83161561308d5760006132b887846143b9565b905060006132c688846143b9565b905061308a88868484016143da565b6143da565b60006132e5836144e3565b905060006132f284614385565b905060ff81161561330b5761330b8582600486016143da565b6113df8561316c8585614408565b600063fc00707f84650ffffffff000600c86901b166703fffffffc000000601a86901b1661325f565b600061334d8361453b565b9050600061335a84614385565b90506000613367856143a2565b905060ff82161561308d57600061337e87836143b9565b905061322f87846001600160401b038416603f88161b6143da565b60006133a483614385565b905060006133b1846143a2565b905060006133be856144c3565b905060ff83161561308d5760006133d587846143b9565b905060006133e388846143b9565b905061308a88868385166143da565b60006133fd83614551565b9050600061340a846143a2565b90506000613417856144c3565b9050600061342587846143b9565b9050600061343388846143b9565b90506130f7886134438488614408565b83614580565b600061345483614385565b905060006134708460006113fa620fffff600c84901c1661442e565b905060ff82161561348a5761348a85836132d58460030b90565b6113df85846143fa565b600061349f83614376565b905060006134ac84614385565b905060006134b9856143a2565b905060006134c787836143b9565b905060ff8316156134e0576134e08784600488016143da565b6114fe876001196134f18488614408565b166144d9565b600061350283614376565b9050600061350f84614385565b9050600061351c856143a2565b9050600061353061352d88846143b9565b90565b905060ff83161561354f5780840161354d8885600384900b6143da565b505b6114fe87866143fa565b60006135648361453b565b9050600061357184614385565b9050600061357e856143a2565b905060ff82161561308d57600061359587836143b9565b905061322f87846001600160401b038416603f88161c6143da565b60006135bb836144c3565b905060006135c884614385565b905060006135d5856143a2565b905060006135e387836143b9565b9050600063ffffffff8216601f86161c5b905060ff8416156130f7576130f788856132d58460030b90565b60006136198361441f565b90506000613626846143a2565b90506000613633856144c3565b9050600061364187846143b9565b9050600061364f88846143b9565b9050806001600160401b0316826001600160401b0316146130f7576125078861316c8888614408565b600061368383614376565b9050600061369084614385565b9050600061369d856143a2565b905060006136ab87836143b9565b905060006135f4886136bd8488614408565b612916565b60006136dc8360006113fa620fffff600c84901c1661442e565b905060006136e984614385565b905060ff81161561348a5761348a85826132d58686614408565b600061370e8361441f565b9050600061371b846143a2565b90506000613728856144c3565b9050600061373687846143b9565b9050600061374488846143b9565b9050806001600160401b0316826001600160401b0316106130f7576125078861316c8888614408565b600061377883614385565b90506000613785846143a2565b90506000613792856144c3565b905060006137a361352d88856143b9565b905060006137b461352d89856143b9565b905060ff8516156130f75760008183015b90506137d689876132d58460030b90565b5061250788876143fa565b60006137ec8361453b565b905060006137f984614385565b90506000613806856143a2565b905060ff82161561308d57600061381d87836143b9565b905061322f8784600784900b603f88161d6143da565b600061383e83614385565b9050600061384b846143a2565b90506000613858856144c3565b905060ff83161561308d57600061386f87846143b9565b9050600061387d88846143b9565b905061308a88868385176143da565b6000613897836144c3565b905060006138a484614385565b905060006138b1856143a2565b905060006138c261352d88846143b9565b905060ff83161561354f5761354f87846132d5600385900b601f89161d5b60030b90565b60006138f18361441f565b905060006138fe846143a2565b9050600061390b856144c3565b9050600061391987846143b9565b9050600061392788846143b9565b90508060070b8260070b126130f7576125078861316c8888614408565b600061394f83614385565b9050600061395c846143a2565b90506000613969856144c3565b905060ff83161561308d57600061398087846143b9565b9050600061398e88846143b9565b905061308a88868385036143da565b60006139a883614376565b905060006139b584614385565b905060006139c2856143a2565b905060006139d087836143b9565b905060006139e7886139e28488614408565b6145dc565b905060ff8416156130f7576130f788858360ff166143da565b6000613a0b836144c3565b90506000613a1884614385565b90506000613a25856143a2565b90506000613a3387836143b9565b905060ff83161561354f5761354f87846132d563ffffffff8516601f89161b6138e0565b6000613a6283614385565b90506000613a6f846143a2565b90506000613a7c856144c3565b905060ff83161561308d576000613a9387846143b9565b90506000613aa188846143b9565b905061308a88866001600160401b038516603f85161c6143da565b6000613ac783614385565b90506000613ad4846143a2565b90506000613ae1856144c3565b905060ff83161561308d576000613af887846143b9565b90506000613b0688846143b9565b905061308a88868385186143da565b6000613b2083614551565b90506000613b2d846143a2565b90506000613b3a856144c3565b90506000613b4887846143b9565b90506000613b5688846143b9565b90506130f788613b668488614408565b836145f1565b6000613b7783614385565b90506000613b84846143a2565b90506000613b91856144c3565b905060ff83161561308d576000613ba887846143b9565b90506000613bb688846143b9565b905061308a88866001600160401b038516603f85161b6143da565b6000613bdc8361441f565b90506000613be9846143a2565b90506000613bf6856144c3565b90506000613c0487846143b9565b90506000613c1288846143b9565b90508060070b8260070b12156130f7576125078861316c8888614408565b6000613c3b83614551565b90506000613c48846143a2565b90506000613c55856144c3565b90506000613c6387846143b9565b90506000613c7188846143b9565b90506130f788613c818488614408565b83614679565b6000613c9283614385565b90506000613c9f846143a2565b90506000613cac856144c3565b90506000613cbd61352d88856143b9565b90506000613cce61352d89856143b9565b905060ff8516156130f75760008183036137c5565b6000613cee83614376565b90506000613cfb84614385565b90506000613d08856143a2565b905060ff82161561308d576000613d1f87836143b9565b905061322f8784613d308760030b90565b84186143da565b6000613d4283614385565b90506000613d4f846143a2565b90506000613d5c856144c3565b905060ff83161561308d576000613d7387846143b9565b90506000613d8188846143b9565b905061308a8886600785900b603f85161d6143da565b6000613da283614376565b90506000613daf84614385565b90506000613dbc856143a2565b90506000613dca87836143b9565b90506000613de188613ddc8488614408565b6146a6565b905060ff8416156130f7576130f788858361ffff166143da565b6000613e0683614551565b90506000613e13846143a2565b90506000613e20856144c3565b90506000613e2e87846143b9565b90506000613e3c88846143b9565b90506130f788613e4c8488614408565b836146f9565b6000613e5d83614385565b90506000613e6a846143a2565b90506000613e77856144c3565b90506000613e8587846143b9565b90506000613e9388846143b9565b9050600063ffffffff8316601f83161c5b905060ff861615613ebe57613ebe89876132d58460030b90565b61061389886143fa565b6000613ed383614376565b90506000613ee084614385565b90506000613eed856143a2565b90506000613efb87836143b9565b90506000613f0d886136bd8488614408565b905060ff8416156130f7576130f788858363ffffffff166143da565b6000613f3483614385565b90506000613f41846143a2565b90506000613f4e856144c3565b90506000613f5c87846143b9565b90506000613f6a88846143b9565b9050600063ffffffff8316601f83161b613ea4565b6000613f8a83614376565b90506000613f9784614385565b90506000613fa4856143a2565b90506000613fb287836143b9565b90506000613fc4886139e28488614408565b905060ff8416156130f7576130f788856132d58460000b90565b6000613fe983614385565b90506000613ff6846143a2565b90506000614003856144c3565b905060ff83161561308d57600061401a87846143b9565b9050600061402888846143b9565b90506000816001600160401b0316836001600160401b0316101561404a575060015b6140558987836143da565b50505061107186856143fa565b600061406d83614385565b9050600061407a846143a2565b90506000614087856144c3565b9050600061409861352d88856143b9565b905060006140a688846143b9565b90506000600383900b601f83161d613ea4565b60006140c483614376565b905060006140d184614385565b905060006140de856143a2565b905060006140ec87836143b9565b905060006140fe88613ddc8488614408565b905060ff8416156130f7576130f788856132d58460010b90565b600061412383614376565b9050600061413084614385565b9050600061413d856143a2565b905060ff82161561308d57600061415487836143b9565b905061322f87846141658760030b90565b84176143da565b600061417783614376565b9050600061418484614385565b90506000614191856143a2565b905060ff82161561308d5760006141a887836143b9565b90506141b48460030b90565b6001600160401b0316816001600160401b031610156141de576141d9878460016143da565b61322f565b61322f878460006143da565b60006141f583614385565b90506000614202846143a2565b9050600061420f856144c3565b905060ff83161561308d57600061422687846143b9565b9050600061423488846143b9565b905060008160070b8360070b121561404a575060016140558987836143da565b600061425f83614376565b9050600061426c84614385565b90506000614279856143a2565b905060ff82161561308d57600061429087836143b9565b90508360030b8160070b12156141de576141d9878460016143da565b610d3283826143fa565b610d32836142c384614328565b6142cc84614778565b6040516001600160c01b0319909116602082015260280160405160208183030381529060405280519060200120614786565b60008061430a8361479f565b905060088360200181815161431f919061513b565b90525092915050565b60006113fa82826147b3565b6000806143418382614819565b9050610a5d8482614864565b6000614358826148e5565b60c01c92915050565b6000610a9d836001600160401b038416612f22565b6000600382900b60141d6113fa565b60006113fa660ffffffff00000601484901b165b601b1c601f1690565b60006113fa650ffffffff000600c84901b16614399565b600061034060f8600384901b1601610a5d846001600160401b038316612f22565b61034060f8600384901b160161158a846001600160401b038316846142b6565b60048101610d32838261495c565b6000806144158360030b90565b9093019392505050565b60008061443c600384900b601f1d5b600c1b650ffffffff0001690565b9050600061446961445c6401fffffffe600187901b165b601a1c603f1690565b60051b641fffffffe01690565b90506000614486600f600887901c165b60011b6401fffffffe1690565b905060006144b66144a866ffffffff000000601889901b165b601f1c60011690565b600b1b6507fffffff8001690565b9290931717179392505050565b60006113fa647fffffff80600784901b16614399565b612f1e828261495c565b6000600382900b601f1d60141b660ffffffff00000168161450b601585901c6103ff16614479565b905060006145276144a86507fffffff800600b88901b1661449f565b905060006144b660ff600c88901c1661442e565b60006113fa643fffffffc0600684901b16614453565b6000614569660ffffffff00000601484901b16614399565b614579600384900b60191d61445c565b1792915050565b60078216156145d15760405162461bcd60e51b815260206004820152601e60248201527f6d6973616c69676e656420777269746555696e743634206164647265737300006044820152606401610316565b610d32838383614967565b60006007198216816038600385901b16612979565b60038216156146425760405162461bcd60e51b815260206004820152601e60248201527f6d6973616c69676e656420777269746555696e743332206164647265737300006044820152606401610316565b6007198216600383901b603816600061465b8684612fd4565b9050600061466c856020848661497b565b90506114fe878583614580565b6007198216600383901b60381660006146928684612fd4565b9050600061466c8560ff166008848661497b565b600060018216156129695760405162461bcd60e51b815260206004820152601d60248201527f6d6973616c69676e6564207265616455696e74313620616464726573730000006044820152606401610316565b600182161561474a5760405162461bcd60e51b815260206004820152601e60248201527f6d6973616c69676e656420777269746555696e743136206164647265737300006044820152606401610316565b6007198216600383901b60381660006147638684612fd4565b9050600061466c8561ffff166010848661497b565b60006113fa8260c01b6148e5565b60006147928382614819565b905061158a848284614a29565b60006113fa82805160209182015101015190565b6000600160ff83161b8360078116156147ce576147ce61501f565b671fffffffffffffff600386901c16806147e96001856150f4565b166001600160401b03166000146148025761480261501f565b600061480e8483615188565b979650505050505050565b60408051808201909152600080825260208201526148406001600160401b03841683614abf565b50604080518082019091526001600160401b0392909216825260ff16602082015290565b6000806148748460200151614b06565b602085015190915060009061488a908584614b30565b855190915081146148dd5760405162461bcd60e51b815260206004820152601e60248201527f5265616420726567696f6e20726f6f7420646f65736e2774206d6174636800006044820152606401610316565b509392505050565b603881811b6001600160f81b031916602883811b60ff60f01b1691909117601884811b60ff60e81b1691909117600885811b60ff60e01b169190911760ff60d81b9186901c919091161760ff60d01b9185901c919091161760ff60c81b9184901c919091161760ff60c01b9290911c919091161790565b612f1e610330612f16565b610d32836001600160401b038416836142b6565b6000604061498985846151ae565b63ffffffff1611156149e85760405162461bcd60e51b815260206004820152602260248201527f636f70794269747320636f756e742065786365656473206c696d6974206f66206044820152610d8d60f21b6064820152608401610316565b60006149fb6001603f871681901b6150f4565b90506001600160401b038116603f84161b19905083811663ffffffff8716603f85161b179695505050505050565b6000614a388460200151614b06565b6020850151909150600090614a4e908584614b6d565b5085519091508114614aa25760405162461bcd60e51b815260206004820152601f60248201527f577269746520726567696f6e20726f6f7420646f65736e2774206d61746368006044820152606401610316565b6020850151600090614ab5908686614b30565b9095525050505050565b6000600160ff83161b9050614add60016720000000000000006150f4565b6001600160401b0316614af082856151cb565b6001600160401b031610610d3257610d3261501f565b600080614b1b83805160209182015101015190565b905060208360200181815161431f919061513b565b60008080614b3f868686614b6d565b602088018051929450909250611fe0600584901b1691614b6090839061513b565b9052509095945050505050565b6000806000614b80856020015160ff1690565b9050603d60ff82161115614be45760405162461bcd60e51b815260206004820152602560248201527f43616e6e6f7420626520626967676572207468616e20746865207472656520696044820152643a39b2b63360d91b6064820152608401610316565b84516000614bf383603d6151f6565b905060005b8160ff16816001600160401b03161015614cfd57600060405180604001604052808b6000015181526020016005846001600160401b0316901b6001600160401b03168c60200151614c49919061513b565b90529050614c646001600160401b038581169084161c614d0c565b15614cab5787614c7c82805160209182015101015190565b604080516020810193909352820152606001604051602081830303815290604052805190602001209750614cea565b614cbd81805160209182015101015190565b60408051602081019290925281018990526060016040516020818303038152906040528051906020012097505b5080614cf58161520f565b915050614bf8565b50949794965093945050505050565b6000614d196002836150a1565b6001600160401b03161592915050565b60008083601f840112614d3b57600080fd5b5081356001600160401b03811115614d5257600080fd5b6020830191508360208260051b85010111156123a457600080fd5b600080600080600060808688031215614d8557600080fd5b8535945060208601356001600160401b03811115614da257600080fd5b614dae88828901614d29565b9699909850959660408101359660609091013595509350505050565b600060408284031215614ddc57600080fd5b50919050565b60008060008060008060c08789031215614dfb57600080fd5b614e058888614dca565b955060408701359450606087013593506080870135925060a08701356001600160401b03811115614e3557600080fd5b614e4189828a01614d29565b979a9699509497509295939492505050565b600080600080600060a08688031215614e6b57600080fd5b614e758787614dca565b9450604086013593506060860135925060808601356001600160401b0380821115614e9f57600080fd5b818801915088601f830112614eb357600080fd5b813581811115614ec257600080fd5b896020828501011115614ed457600080fd5b9699959850939650602001949392505050565b600060408284031215614ef957600080fd5b610a9d8383614dca565b600060208284031215614f1557600080fd5b5035919050565b600080600080600060c08688031215614f3457600080fd5b614f3e8787614dca565b97604087013597506060870135966080810135965060a00135945092505050565b600080600060808486031215614f7457600080fd5b614f7e8585614dca565b95604085013595506060909401359392505050565b6020808252601690820152751d1bdd5c9b985b595b9d081a5cc8199a5b9a5cda195960521b604082015260600190565b600060408284031215614fd557600080fd5b604051604081018181106001600160401b038211171561500557634e487b7160e01b600052604160045260246000fd5b604052823581526020928301359281019290925250919050565b634e487b7160e01b600052600160045260246000fd5b634e487b7160e01b600052601160045260246000fd5b60006001820161505d5761505d615035565b5060010190565b818103818111156113fa576113fa615035565b634e487b7160e01b600052601260045260246000fd5b60008261509c5761509c615077565b500690565b60006001600160401b03808416806150bb576150bb615077565b92169190910692915050565b6000816150d6576150d6615035565b506000190190565b634e487b7160e01b600052603260045260246000fd5b6001600160401b0382811682821603908082111561511457615114615035565b5092915050565b6001600160401b0381811683821601908082111561511457615114615035565b808201808211156113fa576113fa615035565b80820281158282048414176113fa576113fa615035565b60006001600160401b0382168061517e5761517e615035565b6000190192915050565b60006001600160401b03808416806151a2576151a2615077565b92169190910492915050565b63ffffffff81811683821601908082111561511457615114615035565b6001600160401b038181168382160280821691908281146151ee576151ee615035565b505092915050565b60ff82811682821603908111156113fa576113fa615035565b60006001600160401b0380831681810361522b5761522b615035565b600101939250505056fea26469706673582212208253112513540be0c28b1bbe2961cce69018f8e807e0706289a63426bf64869664736f6c63430008110033a26469706673582212206ad5d2bcbed7c15f20a907b605b5c1a2afdbed8c2687719689ec075be25a4cc264736f6c63430008110033","linkReferences":{}},"methodIdentifiers":{"instantiate(bytes32)":"69ea58d8"},"id":49}