{"abi":[{"type":"constructor","inputs":[],"stateMutability":"nonpayable"},{"type":"function","name":"instantiate","inputs":[{"name":"_initialHash","type":"bytes32","internalType":"Machine.Hash"}],"outputs":[{"name":"","type":"address","internalType":"contract TopTournament"}],"stateMutability":"nonpayable"}],"bytecode":{"object":"0x608060405234801561001057600080fd5b506132b0806100206000396000f3fe608060405234801561001057600080fd5b506004361061002b5760003560e01c806369ea58d814610030575b600080fd5b61004361003e3660046100b5565b61005f565b6040516001600160a01b03909116815260200160405180910390f35b6000808233604051610070906100a8565b9182526001600160a01b03166020820152604001604051809103906000f0801580156100a0573d6000803e3d6000fd5b509392505050565b6131ac806100cf83390190565b6000602082840312156100c757600080fd5b503591905056fe6101406040523480156200001257600080fd5b50604051620031ac380380620031ac8339810160408190526200003591620000fc565b81818162000047600061012c6200013b565b6080829052600060a081905260c0819052806200006f620000e7602090811b620014e917901c565b6001600160401b0390811660e052831661010052620000b462000096600061012c6200013b565b846001600160401b0316620000eb60201b620014ed1790919060201c565b15620000cc57620000c9600061012c6200013b565b92505b505050506001600160a01b0316610120525062000171915050565b4290565b6001600160401b0390811691161190565b600080604083850312156200011057600080fd5b825160208401519092506001600160a01b03811681146200013057600080fd5b809150509250929050565b6001600160401b038181168382160190808211156200016a57634e487b7160e01b600052601160045260246000fd5b5092915050565b60805160a05160c05160e0516101005161012051612fb3620001f960003960008181611a920152611b360152600081816103e801526115340152600081816103c7015261151201526000818161034d015281816106f301528181610b4701528181610b7901526116c701526000818161062f015261083a015260006105ea0152612fb36000f3fe608060405234801561001057600080fd5b50600436106100b45760003560e01c8063a1af906b11610071578063a1af906b146101c7578063b401865c146101f9578063cb2773db1461020c578063fcc6077d14610231578063fcc853911461029f578063ff78e0ee146102b257600080fd5b80631d5bf796146100b95780633f36e2fe146100ce5780636a1a140d146100e15780637795820c146101095780638acc802d146101935780639a9b4b2b146101b4575b600080fd5b6100cc6100c7366004612a73565b6102c5565b005b6100cc6100dc366004612ae8565b610454565b6100f46100ef366004612b59565b6107a6565b60405190151581526020015b60405180910390f35b610167610117366004612b75565b6040805180820182526000808252602091820181905292835260028152818320600382529282902054825180840190935292546001600160401b038082168452600160401b909104169082015291565b6040805183516001600160401b0390811682526020948501511693810193909352820152606001610100565b6101a66101a1366004612b75565b610826565b604051908152602001610100565b6100cc6101c2366004612b59565b610865565b6101cf610b45565b604080516001600160401b0394851681529284166020840152921691810191909152606001610100565b6100cc610207366004612ba3565b610ba4565b610214610ee1565b604080519315158452602084019290925290820152606001610100565b61024461023f366004612b75565b610f36565b6040516101009190600060c0820190508251825260208301516020830152604083015160408301526060830151606083015260808301516001600160401b0380821660808501528060a08601511660a0850152505092915050565b6100cc6102ad366004612bd8565b610fcd565b6100cc6102c0366004612c1b565b61117c565b6102cd611503565b1561031f5760405162461bcd60e51b815260206004820152601b60248201527f746f75726e616d656e7420636865636b2d696e20656c6170736564000000000060448201526064015b60405180910390fd5b60408051602080820185905281830184905282518083038401815260609092019092528051910120610374817f000000000000000000000000000000000000000000000000000000000000000088888861155d565b60008181526003602090815260408083208990556002825291829020825180840190935280546001600160401b038082168552600160401b9091041691830191909152906103c1906115e1565b61040c817f00000000000000000000000000000000000000000000000000000000000000007f000000000000000000000000000000000000000000000000000000000000000061162d565b61041882828686611667565b6040518281527fe53537f202911d376d6e285835b2a2016e83e99fbe84a059d445cc2be48072629060200160405180910390a150505050505050565b61045c6117eb565b156104795760405162461bcd60e51b815260040161031690612c4f565b6000600481610495610490368b90038b018b612c7f565b611804565b81526020808201929092526040908101600020815160c081018352815481526001820154938101939093526002810154918301919091526003810154606083015260048101546001600160401b038082166080850152600160401b9091041660a0830152915061050490611846565b6040805160c08101825282548152600183015460208201526002830154918101919091526003820154606082015260048201546001600160401b038082166080840152600160401b9091041660a08201526105609087876118ae565b86356000908152600260209081526040808320918a013583528220610584826118bb565b61058d816118bb565b60408051808201825283546001600160401b038082168352600160401b9182900481166020808501919091528451808601909552855480831686529290920416908301526105da916118db565b925060009150819050610613848b7f00000000000000000000000000000000000000000000000000000000000000008c8c8c8c8c61190a565b91509150600061071e888c60000135858e6020013586896106ee7f00000000000000000000000000000000000000000000000000000000000000008d6040518060c0016040529081600082015481526020016001820154815260200160028201548152602001600382015481526020016004820160009054906101000a90046001600160401b03166001600160401b03166001600160401b031681526020016004820160089054906101000a90046001600160401b03166001600160401b03166001600160401b031681525050611a3790919063ffffffff16565b6107197f00000000000000000000000000000000000000000000000000000000000000006001612cf1565b611a54565b9050610732610490368d90038d018d612c7f565b6001600160a01b03821660009081526005602052604090205561075d610490368d90038d018d612c7f565b6040516001600160a01b03831681527f166b786700a644dcec96aa84a92c26ecfee11b50956409c8cc83616042290d799060200160405180910390a25050505050505050505050565b803560009081526002602081815260408084208151808301835290546001600160401b038082168352600160401b918290048116838601528488013587529484528286208351808501909452548086168452049093169181019190915261080c82611bcc565b158061081e575061081c81611bcc565b155b949350505050565b60008061083283610f36565b905061085e817f0000000000000000000000000000000000000000000000000000000000000000611a37565b9392505050565b61086d6117eb565b1561088a5760405162461bcd60e51b815260040161031690612c4f565b61090b600460006108a361049036869003860186612c7f565b81526020808201929092526040908101600020815160c0810183528154815260018201549381019390935260028101549183019190915260038101546060830152600401546001600160401b038082166080840152600160401b9091041660a0820152611c0c565b8035600090815260026020908152604080832082850135845292819020815180830190925283546001600160401b038082168452600160401b909104169282019290925261095890611c58565b6040805180820190915281546001600160401b038082168352600160401b90910416602082015261098890611c58565b6040805180820190915282546001600160401b038082168352600160401b9091041660208201526109b890611bcc565b158015610a3557506040805180820190915282546001600160401b038082168352600160401b909104166020820152610a33906109f490611cae565b6040805180820190915283546001600160401b038082168352600160401b909104166020820152610a2490611d2e565b6001600160401b0316906114ed565b155b80610ad957506040805180820190915281546001600160401b038082168352600160401b909104166020820152610a6b90611bcc565b158015610ad957506040805180820190915281546001600160401b038082168352600160401b909104166020820152610ad790610aa790611cae565b6040805180820190915284546001600160401b038082168352600160401b909104166020820152610a2490611d2e565b155b15610afd57610af8610af361049036869003860186612c7f565b611d65565b505050565b60405162461bcd60e51b815260206004820152601b60248201527f63616e6e6f7420656c696d696e6174652062792074696d656f757400000000006044820152606401610316565b7f0000000000000000000000000000000000000000000000000000000000000000600080610b7283611db4565b9150610b9d7f0000000000000000000000000000000000000000000000000000000000000000611df8565b9050909192565b610bac6117eb565b15610bc95760405162461bcd60e51b815260040161031690612c4f565b6001600160a01b038316600090815260056020526040902054610beb81611e34565b600081815260046020818152604092839020835160c0810185528154815260018201549281019290925260028101549382019390935260038301546060820152908201546001600160401b038082166080840152600160401b9091041660a0820152610c5690611c0c565b6040805160c08101825282548152600183015460208201526002830154918101919091526003820154606082015260048201546001600160401b038082166080840152600160401b9091041660a0820152610cb090611e77565b6000806000876001600160a01b0316635145236f6040518163ffffffff1660e01b8152600401606060405180830381865afa158015610cf3573d6000803e3d6000fd5b505050506040513d601f19601f82011682018060405250810190610d179190612d18565b92509250925082610d6a5760405162461bcd60e51b815260206004820181905260248201527f6368696c6420746f75726e616d656e74206973206e6f742066696e69736865646044820152606401610316565b610d7382611eca565b6040805160208082018a905281830189905282518083038401815260609092019092528051910120828114610dea5760405162461bcd60e51b815260206004820152601e60248201527f746f75726e616d656e742077696e6e657220697320646966666572656e7400006044820152606401610316565b604051631de5608360e21b8152600481018390526000906001600160a01b038b1690637795820c90602401606060405180830381865afa158015610e32573d6000803e3d6000fd5b505050506040513d601f19601f82011682018060405250810190610e569190612d69565b50600083815260026020908152604091829020825180840190935280546001600160401b038082168552600160401b9091041691830191909152919250610e9c90611c58565b610ea68183611f17565b610eb283828c8c611667565b610ebb88611d65565b5050506001600160a01b0390971660009081526005602052604081205550505050505050565b6000806000610eee6117eb565b610efe5750600092839250829150565b600080610f09611f2e565b9150915081610f1a57610f1a612def565b6000818152600360205260409020546001969195509350915050565b6040805160c081018252600080825260208201819052918101829052606081018290526080810182905260a081019190915250600090815260046020818152604092839020835160c08101855281548152600182015492810192909252600281015493820193909352600383015460608201529101546001600160401b038082166080840152600160401b9091041660a082015290565b610fd56117eb565b15610ff25760405162461bcd60e51b815260040161031690612c4f565b6000600481611009610490368a90038a018a612c7f565b81526020808201929092526040908101600020815160c081018352815481526001820154938101939093526002810154918301919091526003810154606083015260048101546001600160401b038082166080850152600160401b9091041660a0830152915061107890611c0c565b6040805160c08101825282548152600183015460208201526002830154918101919091526003820154606082015260048201546001600160401b038082166080840152600160401b9091041660a08201526110d290611f41565b6040805160c08101825282548152600183015460208201526002830154918101919091526003820154606082015260048201546001600160401b038082166080840152600160401b9091041660a082015261112e9086866118ae565b61113c818787878787611fa0565b8535600090815260026020526040902061115590612090565b6111746002600088602001358152602001908152602001600020612090565b505050505050565b6111846117eb565b156111a15760405162461bcd60e51b815260040161031690612c4f565b6111ba600460006108a361049036889003880188612c7f565b8235600090815260026020908152604080832082870135845292819020815180830190925283546001600160401b038082168452600160401b909104169282019290925261120790611c58565b6040805180820190915281546001600160401b038082168352600160401b90910416602082015261123790611c58565b6040805180820190915282546001600160401b038082168352600160401b90910416602082015261126790611bcc565b80156112a057506040805180820190915281546001600160401b038082168352600160401b90910416602082015261129e90611bcc565b155b15611362576112b185358585612150565b6113155760405162461bcd60e51b815260206004820152602f60248201527f6368696c64206e6f64657320646f206e6f74206d6174636820706172656e742060448201526e28636f6d6d69746d656e744f6e652960881b6064820152608401610316565b6040805180820190915281546001600160401b038082168352600160401b9091041660208201526113509061134990611cae565b8390612182565b61135d8535838686611667565b6114cd565b6040805180820190915282546001600160401b038082168352600160401b90910416602082015261139290611bcc565b1580156113ca57506040805180820190915281546001600160401b038082168352600160401b9091041660208201526113ca90611bcc565b1561148d576113de60208601358585612150565b6114425760405162461bcd60e51b815260206004820152602f60248201527f6368696c64206e6f64657320646f206e6f74206d6174636820706172656e742060448201526e28636f6d6d69746d656e7454776f2960881b6064820152608401610316565b6040805180820190915282546001600160401b038082168352600160401b90910416602082015261147d9061147690611cae565b8290612182565b61135d8560200135828686611667565b60405162461bcd60e51b815260206004820152601560248201527418d85b9b9bdd081dda5b88189e481d1a5b595bdd5d605a1b6044820152606401610316565b6114e2610af361049036889003880188612c7f565b5050505050565b4290565b6001600160401b03808216908316115b92915050565b60006115586001600160401b037f0000000000000000000000000000000000000000000000000000000000000000167f000000000000000000000000000000000000000000000000000000000000000061219a565b905090565b600061156885611df8565b90506000611578828686866121b0565b90508681146115d55760405162461bcd60e51b815260206004820152602360248201527f636f6d6d69746d656e74206c61737420737461746520646f65736e2774206d616044820152620e8c6d60eb1b6064820152608401610316565b50505050505050565b50565b6115ea81612247565b6115de5760405162461bcd60e51b815260206004820152601460248201527318db1bd8dac81a5cc81a5b9a5d1a585b1a5e995960621b6044820152606401610316565b60006116556116456001600160401b0342168561225b565b6001600160401b03841690612272565b905061166184826122a3565b50505050565b60408051602080820185905281830184905282518083038401815260609092019092528051910120841461169a565b1490565b6116a6576116a6612def565b6000806116b1611f2e565b9150915081156117e2576000806116eb838988887f000000000000000000000000000000000000000000000000000000000000000061231f565b6000828152600460208181526040808420855181558286015160018201558186015160028083019190915560608701516003830155608087015191909401805460a08801516001600160401b03908116600160401b026001600160801b03199092169316929092179190911790558884529190529020919350915061176f816123e3565b611778886123e3565b61178181612090565b61178a60008055565b6001805490600061179a83612e05565b919050555088847f32911001007d8c9879b608566be8acc2184592f0a43706f804f285455bb0f52e896040516117d291815260200190565b60405180910390a3505050611174565b61117486600055565b60006117f5611503565b80156115585750506001541590565b6000816040516020016118299190815181526020918201519181019190915260400190565b604051602081830303815290604052805190602001209050919050565b60808101516001600160401b03166001146115de5760405162461bcd60e51b815260206004820152602260248201527f6d61746368206973206e6f7420726561647920746f2062652066696e616c697a604482015261195960f21b6064820152608401610316565b8251610af890838361246c565b8054600160401b90046001600160401b0316156115de576115de81612090565b805182516000916118f5916001600160401b0316906114ed565b15611902575081516114fd565b5080516114fd565b6040805160c0810182528954815260018a0154602082015260028a0154918101919091526003890154606082015260048901546001600160401b038082166080840152600160401b9091041660a0820152600090819061196a90886124c3565b611982576119788a886124dc565b9092509050611992565b61198c8a876125b8565b90925090505b89600301546000036119e9578785146119e45760405162461bcd60e51b81526020600482015260146024820152731859dc9959481a185cda081a5b98dbdc9c9958dd60621b6044820152606401610316565b611a20565b60048a015460038b0154611a2091600160401b90046001600160401b031690611a1490600190612e1e565b8b3591908888886126a7565b611a2a8a8661271e565b9850989650505050505050565b600080611a478460a00151611db4565b905061081e84848361273d565b600080611a6360016003612e31565b6001600160401b0316836001600160401b031603611b1f5760405163b96efa6b60e01b81526001600160a01b037f0000000000000000000000000000000000000000000000000000000000000000169063b96efa6b90611ad5908d908d908d908d908d908d908d908d90600401612e51565b6020604051808303816000875af1158015611af4573d6000803e3d6000fd5b505050506040513d601f19601f82011682018060405250810190611b189190612e96565b9050611bbf565b60405163141012df60e21b81526001600160a01b037f000000000000000000000000000000000000000000000000000000000000000016906350404b7c90611b79908d908d908d908d908d908d908d908d90600401612e51565b6020604051808303816000875af1158015611b98573d6000803e3d6000fd5b505050506040513d601f19601f82011682018060405250810190611bbc9190612e96565b90505b9998505050505050505050565b60208101516000906001600160401b0316611be957506001919050565b6114fd611bfb425b846020015161225b565b83516001600160401b0316906114ed565b611c1581612771565b6115de5760405162461bcd60e51b81526020600482015260146024820152731b585d18da08191bd95cc81b9bdd08195e1a5cdd60621b6044820152606401610316565b611c6181612247565b156115de5760405162461bcd60e51b815260206004820152601860248201527f636c6f636b206973206e6f7420696e697469616c697a656400000000000000006044820152606401610316565b60208101516000906001600160401b0316611d0b5760405162461bcd60e51b815260206004820152601c60248201527f612070617573656420636c6f636b2063616e27742074696d656f7574000000006044820152606401610316565b81516114fd90611d1f42856020015161225b565b6001600160401b031690612272565b60208101516000906001600160401b0316611d4857505190565b6114fd611d5442611bf1565b83516001600160401b031690612272565b60018054906000611d7583612eb3565b909155505060009081526004602081905260408220828155600181018390556002810183905560038101929092550180546001600160801b0319169055565b60408051606081018252601f8152601060208201526000918101829052806001600160401b03841660038110611dec57611dec612eca565b60200201519392505050565b604080516060810182526020808252600f90820152601091810191909152600090806001600160401b03841660038110611dec57611dec612eca565b806115de5760405162461bcd60e51b81526020600482015260136024820152721b585d18da08191bd95cdb89dd08195e1a5cdd606a1b6044820152606401610316565b60808101516001600160401b0316156115de5760405162461bcd60e51b81526020600482015260156024820152741b585d18da081a5cc81b9bdd08199a5b9a5cda1959605a1b6044820152606401610316565b806115de5760405162461bcd60e51b815260206004820152601760248201527f74726565206e6f646520646f65736e27742065786973740000000000000000006044820152606401610316565b6000611f2282611d2e565b9050610af883826122a3565b600080548015611f3d57600191505b9091565b608081015160016001600160401b03909116116115de5760405162461bcd60e51b815260206004820152601760248201527f6d617463682063616e277420626520616476616e6365640000000000000000006044820152606401610316565b6040805160c08101825287548152600188015460208201526002880154918101919091526003870154606082015260048701546001600160401b038082166080840152600160401b9091041660a0820152611ffb90856124c3565b61201a5761200a84838361246c565b61201586838361277f565b612030565b61202583838361246c565b6120308683836127f5565b61204261049036879003870187612c7f565b865460018801546040517f29ff393c59c37f91e930fad4d88447efc58cf5d7c048499e1f20edb3699413789261208092908252602082015260400190565b60405180910390a2505050505050565b6040805180820190915281546001600160401b038082168352600160401b9091041660208201526000906120c390611d2e565b90506001600160401b0381166121295760405162461bcd60e51b815260206004820152602560248201527f63616e277420616476616e636520636c6f636b2077697468206e6f2074696d65604482015264081b19599d60da1b6064820152608401610316565b612132826128a8565b815467ffffffffffffffff19166001600160401b0391909116179055565b60408051602080820185905281830184905282518083038401815260609092019092528051910120600090841461081e565b8154600090611f22906001600160401b031683612272565b600061085e6001600160401b03841683426128f7565b60006001600160401b03851682146121ca576121ca612def565b60005b856001600160401b031681101561223d578383828181106121f0576121f0612eca565b9050602002013585604051602001612212929190918252602082015260400190565b604051602081830303815290604052805190602001209450808061223590612e05565b9150506121cd565b5092949350505050565b80516000906001600160401b0316156114fd565b600082826122698183612e31565b95945050505050565b600082826001600160401b0380821690831610612298576122938183612e31565b612269565b506000949350505050565b6001600160401b0381166123035760405162461bcd60e51b815260206004820152602160248201527f63616e27742063726561746520636c6f636b2077697468207a65726f2074696d6044820152606560f81b6064820152608401610316565b81546001600160801b0319166001600160401b03909116179055565b6040805160c081018252600080825260208201819052918101829052606081018290526080810182905260a0810182905261235b868686612150565b61236757612367612def565b6000604051806040016040528089815260200188815250905060006040518060c001604052808a8152602001888152602001878152602001600081526020016123af87611df8565b6001600160401b03168152602001866001600160401b031681525090506123d582611804565b999098509650505050505050565b6040805180820190915281546001600160401b038082168352600160401b90910416602082015260009061241690611d2e565b9050600061242e6001600160401b038316607861290c565b9050612450612440600061012c612cf1565b6001600160401b038316906114ed565b1561246257611f22600061012c612cf1565b610af883826122a3565b612477838383612150565b610af85760405162461bcd60e51b815260206004820152601e60248201527f6368696c64206e6f64657320646f6e2774206d6174636820706172656e7400006044820152606401610316565b600061085e83602001518361169690919063ffffffff16565b600482015460009081906001600160401b03166001146124fe576124fe612def565b600280850184905560048501805467ffffffffffffffff1916908190556040805160c08101825287548152600188015460208201529081018690526003870154606082015260006080820152600160401b9091046001600160401b031660a08201526125699061291a565b6125739190612ef6565b6001600160401b031660000361259c5760018401549150612595846002015490565b90506125b1565b600284015491506125ae846001015490565b90505b9250929050565b600482015460009081906001600160401b03166001146125da576125da612def565b600180850184905560048501805467ffffffffffffffff19169055600385018054600090612609908490612f1c565b90915550506040805160c0810182528554815260018601546020820152600286810154928201929092526003860154606082015260048601546001600160401b038082166080840152600160401b9091041660a08201526126699061291a565b6126739190612ef6565b6001600160401b03166000036126955760028401549150612595846001015490565b600184015491506125ae846002015490565b60006126b286611df8565b905060006126c38583888787612929565b90508781146127145760405162461bcd60e51b815260206004820152601e60248201527f636f6d6d69746d656e7420737461746520646f65736e2774206d6174636800006044820152606401610316565b5050505050505050565b60048201546001600160401b03161561273957612739612def565b9055565b606083015160009060016001600160401b0384161b9061275d8282612f2f565b6127679086612f1c565b9695505050505050565b8051600090155b1592915050565b600483015460016001600160401b039091161161279e5761279e612def565b6001830180548455829055600283018190556004830180546001600160401b03169060006127cb83612f46565b91906101000a8154816001600160401b0302191690836001600160401b0316021790555050505050565b600483015460016001600160401b039091161161281457612814612def565b6002830180548455600184018390558190556004830180546001600160401b031690600061284183612f46565b91906101000a8154816001600160401b0302191690836001600160401b03160217905550508260040160009054906101000a90046001600160401b03166001600160401b03166001901b83600301600082825461289e9190612f1c565b9091555050505050565b8054600160401b90046001600160401b03166128e357805467ffffffffffffffff60401b1916600160401b6001600160401b03421602179055565b805467ffffffffffffffff60401b19169055565b600061081c82610a246001600160401b038716865b600082826122698183612cf1565b60006114fd8260a00151611df8565b60006001600160401b038516821461294357612943612def565b60005b856001600160401b0316811015612a175761296285821c612a22565b156129b8578684848381811061297a5761297a612eca565b9050602002013560405160200161299b929190918252602082015260400190565b604051602081830303815290604052805190602001209650612a05565b8383828181106129ca576129ca612eca565b90506020020135876040516020016129ec929190918252602082015260400190565b6040516020818303038152906040528051906020012096505b80612a0f81612e05565b915050612946565b509495945050505050565b6000612778600283612f69565b60008083601f840112612a4157600080fd5b5081356001600160401b03811115612a5857600080fd5b6020830191508360208260051b85010111156125b157600080fd5b600080600080600060808688031215612a8b57600080fd5b8535945060208601356001600160401b03811115612aa857600080fd5b612ab488828901612a2f565b9699909850959660408101359660609091013595509350505050565b600060408284031215612ae257600080fd5b50919050565b60008060008060008060c08789031215612b0157600080fd5b612b0b8888612ad0565b955060408701359450606087013593506080870135925060a08701356001600160401b03811115612b3b57600080fd5b612b4789828a01612a2f565b979a9699509497509295939492505050565b600060408284031215612b6b57600080fd5b61085e8383612ad0565b600060208284031215612b8757600080fd5b5035919050565b6001600160a01b03811681146115de57600080fd5b600080600060608486031215612bb857600080fd5b8335612bc381612b8e565b95602085013595506040909401359392505050565b600080600080600060c08688031215612bf057600080fd5b612bfa8787612ad0565b97604087013597506060870135966080810135965060a00135945092505050565b600080600060808486031215612c3057600080fd5b612c3a8585612ad0565b95604085013595506060909401359392505050565b6020808252601690820152751d1bdd5c9b985b595b9d081a5cc8199a5b9a5cda195960521b604082015260600190565b600060408284031215612c9157600080fd5b604051604081018181106001600160401b0382111715612cc157634e487b7160e01b600052604160045260246000fd5b604052823581526020928301359281019290925250919050565b634e487b7160e01b600052601160045260246000fd5b6001600160401b03818116838216019080821115612d1157612d11612cdb565b5092915050565b600080600060608486031215612d2d57600080fd5b83518015158114612d3d57600080fd5b602085015160409095015190969495509392505050565b6001600160401b03811681146115de57600080fd5b6000808284036060811215612d7d57600080fd5b6040811215612d8b57600080fd5b50604051604081018181106001600160401b0382111715612dbc57634e487b7160e01b600052604160045260246000fd5b6040528351612dca81612d54565b81526020840151612dda81612d54565b60208201526040939093015192949293505050565b634e487b7160e01b600052600160045260246000fd5b600060018201612e1757612e17612cdb565b5060010190565b818103818111156114fd576114fd612cdb565b6001600160401b03828116828216039080821115612d1157612d11612cdb565b97885260208801969096526040870194909452606086019290925260808501526001600160401b0390811660a085015260c08401919091521660e08201526101000190565b600060208284031215612ea857600080fd5b815161085e81612b8e565b600081612ec257612ec2612cdb565b506000190190565b634e487b7160e01b600052603260045260246000fd5b634e487b7160e01b600052601260045260246000fd5b60006001600160401b0380841680612f1057612f10612ee0565b92169190910692915050565b808201808211156114fd576114fd612cdb565b80820281158282048414176114fd576114fd612cdb565b60006001600160401b03821680612f5f57612f5f612cdb565b6000190192915050565b600082612f7857612f78612ee0565b50069056fea2646970667358221220084110fc162fbd5eb1ebddd4ff72ec72da41f54dd0d1e9e3bfa7f9ff784b40dd64736f6c63430008110033a264697066735822122024fe1eaef758e01ff019d700ab49f27427ce79613204a62c34cf0a343e4b785464736f6c63430008110033","linkReferences":{}},"methodIdentifiers":{"instantiate(bytes32)":"69ea58d8"},"id":50}