{"abi":[{"type":"constructor","inputs":[{"name":"_singleLevelFactory","type":"address","internalType":"contract SingleLevelTournamentFactory"},{"name":"_topFactory","type":"address","internalType":"contract TopTournamentFactory"},{"name":"_middleFactory","type":"address","internalType":"contract MiddleTournamentFactory"},{"name":"_bottomFactory","type":"address","internalType":"contract BottomTournamentFactory"}],"stateMutability":"nonpayable"},{"type":"function","name":"instantiateBottom","inputs":[{"name":"_initialHash","type":"bytes32","internalType":"Machine.Hash"},{"name":"_contestedCommitmentOne","type":"bytes32","internalType":"Tree.Node"},{"name":"_contestedFinalStateOne","type":"bytes32","internalType":"Machine.Hash"},{"name":"_contestedCommitmentTwo","type":"bytes32","internalType":"Tree.Node"},{"name":"_contestedFinalStateTwo","type":"bytes32","internalType":"Machine.Hash"},{"name":"_allowance","type":"uint64","internalType":"Time.Duration"},{"name":"_startCycle","type":"uint256","internalType":"uint256"},{"name":"_level","type":"uint64","internalType":"uint64"}],"outputs":[{"name":"","type":"address","internalType":"contract Tournament"}],"stateMutability":"nonpayable"},{"type":"function","name":"instantiateMiddle","inputs":[{"name":"_initialHash","type":"bytes32","internalType":"Machine.Hash"},{"name":"_contestedCommitmentOne","type":"bytes32","internalType":"Tree.Node"},{"name":"_contestedFinalStateOne","type":"bytes32","internalType":"Machine.Hash"},{"name":"_contestedCommitmentTwo","type":"bytes32","internalType":"Tree.Node"},{"name":"_contestedFinalStateTwo","type":"bytes32","internalType":"Machine.Hash"},{"name":"_allowance","type":"uint64","internalType":"Time.Duration"},{"name":"_startCycle","type":"uint256","internalType":"uint256"},{"name":"_level","type":"uint64","internalType":"uint64"}],"outputs":[{"name":"","type":"address","internalType":"contract Tournament"}],"stateMutability":"nonpayable"},{"type":"function","name":"instantiateSingleLevel","inputs":[{"name":"_initialHash","type":"bytes32","internalType":"Machine.Hash"}],"outputs":[{"name":"","type":"address","internalType":"contract Tournament"}],"stateMutability":"nonpayable"},{"type":"function","name":"instantiateTop","inputs":[{"name":"_initialHash","type":"bytes32","internalType":"Machine.Hash"}],"outputs":[{"name":"","type":"address","internalType":"contract Tournament"}],"stateMutability":"nonpayable"},{"type":"event","name":"rootCreated","inputs":[{"name":"","type":"address","indexed":false,"internalType":"contract Tournament"}],"anonymous":false}],"bytecode":{"object":"0x61010060405234801561001157600080fd5b5060405161055d38038061055d8339810160408190526100309161006a565b6001600160a01b0392831660a05290821660c052811660e052166080526100c9565b6001600160a01b038116811461006757600080fd5b50565b6000806000806080858703121561008057600080fd5b845161008b81610052565b602086015190945061009c81610052565b60408601519093506100ad81610052565b60608601519092506100be81610052565b939692955090935050565b60805160a05160c05160e05161045c6101016000396000610296015260006101e60152600060dc015260006101b2015261045c6000f3fe608060405234801561001057600080fd5b506004361061004c5760003560e01c80630a5abb4b1461005157806319809fed1461008057806350404b7c14610093578063b96efa6b146100a6575b600080fd5b61006461005f3660046102f0565b6100b9565b6040516001600160a01b03909116815260200160405180910390f35b61006461008e3660046102f0565b61018f565b6100646100a1366004610322565b6101e1565b6100646100b4366004610322565b610291565b604051630d3d4b1b60e31b81526004810182905260009081906001600160a01b037f000000000000000000000000000000000000000000000000000000000000000016906369ea58d8906024015b6020604051808303816000875af1158015610126573d6000803e3d6000fd5b505050506040513d601f19601f8201168201806040525081019061014a91906103aa565b6040516001600160a01b03821681529091507fba35f4f3a38c454d2bb9d88f4c8e3d33eefc0eb6934f460a53fb758fd7009e689060200160405180910390a192915050565b604051630d3d4b1b60e31b81526004810182905260009081906001600160a01b037f000000000000000000000000000000000000000000000000000000000000000016906369ea58d890602401610107565b6000807f00000000000000000000000000000000000000000000000000000000000000006001600160a01b0316635cd870168b8b8b8b8b8b8b8b336040518a63ffffffff1660e01b8152600401610240999897969594939291906103ce565b6020604051808303816000875af115801561025f573d6000803e3d6000fd5b505050506040513d601f19601f8201168201806040525081019061028391906103aa565b9a9950505050505050505050565b6000807f00000000000000000000000000000000000000000000000000000000000000006001600160a01b0316635cd870168b8b8b8b8b8b8b8b336040518a63ffffffff1660e01b8152600401610240999897969594939291906103ce565b60006020828403121561030257600080fd5b5035919050565b67ffffffffffffffff8116811461031f57600080fd5b50565b600080600080600080600080610100898b03121561033f57600080fd5b883597506020890135965060408901359550606089013594506080890135935060a089013561036d81610309565b925060c0890135915060e089013561038481610309565b809150509295985092959890939650565b6001600160a01b038116811461031f57600080fd5b6000602082840312156103bc57600080fd5b81516103c781610395565b9392505050565b988952602089019790975260408801959095526060870193909352608086019190915267ffffffffffffffff90811660a086015260c08501919091521660e08301526001600160a01b0316610100820152610120019056fea2646970667358221220b96cf109c39bfcb714ac4b85aee713cf0b46ec76564c1337b45db7a5aafa8c5f64736f6c63430008110033","linkReferences":{}},"methodIdentifiers":{"instantiateBottom(bytes32,bytes32,bytes32,bytes32,bytes32,uint64,uint256,uint64)":"b96efa6b","instantiateMiddle(bytes32,bytes32,bytes32,bytes32,bytes32,uint64,uint256,uint64)":"50404b7c","instantiateSingleLevel(bytes32)":"19809fed","instantiateTop(bytes32)":"0a5abb4b"},"id":51}